:020000040800F2
:10000000980800204D220008892100088B21000853
:100010008D2100088F2100089121000800000000B8
:100020000000000000000000000000009321000814
:100030009521000800000000972100089921000880
:100040008122000885220008892200088D220008EC
:100050009122000895220008992200089D2200089C
:10006000A1220008A5220008A9220008AD2200084C
:10007000B1220008B5220008B9220008BD220008FC
:10008000C1220008C5220008C9220008CD220008AC
:10009000D1220008D5220008D9220008DD2200085C
:1000A000E1220008E5220008E9220008ED2200080C
:1000B000F1220008F5220008F9220008FD220008BC
:1000C0000123000805230008092300080D23000868
:1000D0001123000815230008192300081D23000818
:1000E0002123000825230008292300082D230008C8
:1000F0003123000835230008392300083D23000878
:100100004123000845230008492300084D23000827
:100110005123000855230008592300085D230008D7
:100120006123000865230008692300086D23000887
:100130007123000875230008792300087D23000837
:100140008123000885230008892300088D230008E7
:100150009123000895230008992300089D23000897
:10016000A1230008A5230008A9230008AD23000847
:10017000B1230008B5230008B923000800000000DF
:10018000BD230008C1230008C5230008C9230008B7
:10019000CD230008D1230008D5230008D923000867
:1001A000DD230008E1230008E52300082DE9FC47D2
:1001B000050017D0DFF84877DFF85467BC68F868A7
:1001C00000F003082878C10604F00C0453D524B1CC
:1001D0000C2C08BFB8F1010F2FD13868810703D567
:1001E000A869002800F06481396808074EBF3968A3
:1001F00071680909286A01F0F001814206D200F015
:1002000044FB002809D100F044FA08E000F041FA6C
:100210002CB9286A00F039FB002840F0498100F031
:10022000D4FABA6800F0C7FADFF8DC06006800F01C
:1002300087FB010000F02C8125E2A86990B13968A4
:1002400041F00101396000F09DFB8146386881076B
:1002500000F11C8100F096FBA0EB09000328F5D308
:10026000032010E2386840084000386000F08AFB44
:1002700081463868810740F10B8100F083FBA0EBD9
:1002800009000328F5D3EBE76868B0F5803F04D197
:10029000386840F48030386011E0B0F5A02F38683D
:1002A00006D140F480203860396841F4803105E09F
:1002B00020F480303860396821F480213960686822
:1002C00068B100F05FFB81463868810300F1F2807D
:1002D00000F058FBA0EB09006528F5D3C0E700F05B
:1002E00051FB81463868810340F1E48000F04AFB0D
:1002F000A0EB09006528F5D3B2E700F043FB00F05E
:10030000C4F9C0F0FD80ABE7E86880B1396841F41A
:100310008071396000F036FB80463868410500F195
:10032000DA8000F02FFB00F0B0F9F6D398E73868D8
:1003300020F48070386000F025FB80463868410565
:1003400040F1D08000F01EFB00F09FF9F6D387E764
:1003500040084000706000F015FB8046706881071F
:1003600040F1D28000F00EFB00F08FF9F6D377E772
:100370000528306806D140F004003060316841F053
:10038000010105E0400840003060316821F00401BF
:100390003160A86841F2893968B100F0F3FA824609
:1003A0003068810700F1E68000F0ECFAA0EB0A006B
:1003B0004845F5D354E700F0E5FA824630688107F6
:1003C00040F1D88000F0DEFAA0EB0A004845F5D3F2
:1003D00046E700F0D7FA00F058F9C0F0E0803FE7B8
:1003E00040084000B06000F0CDFA8046B068810758
:1003F00040F1D98000F0C6FA00F047F9F6D32FE7B4
:1004000000F0C0FA001B0328C0F00E8128E700F0BE
:10041000B9FA001B0328C0F0318121E73868810157
:100420000CD4386840F080703860F96841F0807111
:10043000F96000F0A7FA04463868810100F12281D2
:1004400000F0A0FA001B0328F6D309E70C2C2FD0EC
:10045000386820F080703860396811F0205F03D16F
:10046000F86880088000F860F968DFF8A8040140A7
:10047000F96000F087FA04463868810140F1028192
:1004800000F080FA001B0328F6D3E9E600F001F93A
:100490002878C1070ED5082C05D00C2C08BFB8F160
:1004A000030F7FF4F1AE3868810303D5686808B99B
:1004B0000120E8E02878810714D5042C05D00C2C05
:1004C00008BFB8F1020F7FF41FAF3868410502D5AD
:1004D000E8680028ECD07868296920F0FE4040EAFE
:1004E00001607860287801070ED568690028706877
:1004F0003FF42EAF40F00100706000F043FA8046F8
:10050000706881077FF5F9AE2878410739D5B86D55
:10051000C1004FF000080AD4B86D40F08050B865B3
:100520004FF00108B86D00F0805000900098DFF89F
:10053000E893D9F80000C10513D4D9F8000040F4BD
:100540008070C9F8000000F01DFA8246D9F800005A
:10055000C10506D400F016FAA0EB0A000328F5D373
:100560007EE6A86801287FF403AF306840F0010000
:1005700030600EE7B8F1000F03D0B86D20F0805066
:10058000B865287881060ED5686A0028B0683FF4FF
:1005900027AF40F00100B06000F0F4F98046B06889
:1005A00081077FF516AFA86A00286BD002287FF478
:1005B0004DAFF868EA6A00F00301914201BF00F014
:1005C00070012A6B521EB1EB021F1CD16A6B00F442
:1005D000FE41B1EB022F02BF00F07841AA6BB1EBF4
:1005E000C26F10D1EA6B520800F4C001521EB1EB89
:1005F000425F08D1296C490800F0C060491EB0EB89
:10060000416F3FF40BAF0C2C3FF452AF38684101FF
:1006100001D43868C1003FF54BAF386820F08070D6
:10062000386000F0AFF90446386881013FF5E8AE64
:10063000FA68DFF8E812E86A0A40296B0243491EAB
:10064000686B42EA0112E96B490842EA0022286C11
:10065000491E400842EA4152401E42EA4062A86BED
:1006600042EAC062FA60396841F080713960F86826
:1006700040F08070F86000F085F904463868810128
:100680007FF5C5AE0020BDE8F687A0EB0800032883
:100690007047386840F0080038603968286A21F0EF
:1006A000F001014339607968E86921F47F4141EA4A
:1006B0000021796070472DE9F0410400884678D028
:1006C000DFF85C62306800F00700404509D231680D
:1006D000C90848EAC1013160306800F007004045B0
:1006E00067D12078DFF81852C1074AD5606803281F
:1006F00002D129688A0108E0022802D129688A0308
:1007000003E00028296802D18A0702D451E04A0593
:100710004FD5A968890840EA8100A86000F032F945
:100720000746A868616800F00C00B0EB810F28D084
:1007300000F028F9C01B41F289318842F1D303202F
:100740001DE02078410705D5AA68E06822F4E06240
:100750000243AA602178080706D5A968206921F418
:10076000605141EAC001A96000F02FF8AA6800F0CA
:1007700022F8BDE8F0416448006800F0E1B8BDE847
:10078000F0812078810705D5AA68A06822F0F002E0
:100790000243AA60316801F007018845D1D2306870
:1007A000C00848EAC0003060316801F007014145E7
:1007B000C7D00120E3E75B49C2F30312895C514AC9
:1007C00001F01F01C8401060704770B54C4A574B8C
:1007D0009068D6680025002110F00C0006F0030692
:1007E000534C03D00C2812D1012E1AD115682E07B4
:1007F00004D4464D2E68C6F3032502E01568C5F300
:1008000003154C4E56F8255048B9294624E00428D3
:1008100008BF214620D008281ED119461CE00C280C
:100820001AD1D06800F00300022803D0032808BFC3
:100830001D4600E02546D168D068D268C0F3062086
:100840004543C1F30210C2F34161401C491CB5FB92
:10085000F0F04900B0FBF1F1084670BD294800688E
:1008600070472848304A006813683349C3F30222AE
:1008700006E024482C4A006813682F49C3F3C222BB
:10088000895C01F01F01C84070477CB52B4E0546BE
:1008900030680024C10002D500F07AF80EE030681C
:1008A00040F080503060316801F080510091009834
:1008B00000F06EF8316821F080513160B0F5007FB2
:1008C00004D1802D0CD9A12D09D304E0802D88BF3F
:1008D000032405D801D1022402E0702D00D10124A7
:1008E0000F480168C90844EAC1010160006800F0CE
:1008F0000700A04201D0012076BD002076BD000097
:10090000001002400C00002008000020941002405B
:1009100090100240FFFFEEFE007000408C809D01B1
:1009200000200240F42000080810024000127A0063
:100930000024F40004210008782200085810024026
:1009400070B50E4E044630780025A0B14FF47A7190
:100950000B4AB1FBF0F11068B0FBF1F000F0A4F825
:1009600048B9102C07D2002221464FF0FF3000F08A
:100970007DF8B46000E00125284670BD000000202D
:100980000C00002001484068704700BF00000020B4
:10099000DFF89400006800F4C060704710B5DFF81D
:1009A0008810B0F5007F086800F4C06015D1B0F57C
:1009B000007F1BD00868DFF87420DFF8744020F453
:1009C000C06040F4007000F027F84A6953050FD565
:1009D000002818BF401EF8D10AE0B0F5806F05D09E
:1009E000086820F4C06040F480600860002010BDFA
:1009F00048694105FAD5032010BDDFF8380006E04C
:100A0000DFF83000016841F400710160704701684F
:100A100041F48061016070470860322013684343ED
:100A2000B3FBF4F0401C7047007000400C00002045
:100A300040420F00047000400901020002D4254822
:100A400081547047244B02F00F021A4402F8041C30
:100A50007047224B19684FF6FF020002114000F464
:100A6000E06008431E4908431860704738B51B4BC7
:100A70001C68C4F30223C3F10704052C28BF042417
:100A80001D1D072D34BF0023DB1E012505FA04F4CC
:100A9000641E2140994005FA03F35B1E1A4011437E
:100AA000BDE83440C8E7000010B5401EB0F1807FBB
:100AB00001D3012010BD0B4C60600F214FF0FF30BF
:100AC000FFF7BAFF0021A16007202060002010BDC1
:100AD00000F00AB800E400E018ED00E00CED00E0E2
:100AE0000000FA0510E000E0704730B4002513E084
:100AF00050F8042BD30744BFA9F101039A18091F2A
:100B0000042942F8045BFAD213468C0744BF1580CF
:100B10009B1CC90748BF1D7050F8041B0029E7D172
:100B200030BC70472DE9F84F064600243068DFF8E6
:100B300060730105A04621D5B06E70B1B0F5800F8D
:100B400017D0B0F5000F03D0B0F5400F09D013E077
:100B50003A6842F480323A6004E0002100F08DF9F6
:100B6000044654B9F96FB06E21F440010143F967AE
:100B700004E000F07CF9F3E70124A0463068C104EA
:100B800021D5F06EA8B1B0F1807F17D0B0F1007F11
:100B900003D0B0F1407F04D013E0396841F48031D4
:100BA00039607CB9F96FF06E21F040710143F9674B
:100BB00009E0002100F061F90446F2E700F057F97E
:100BC000FAE70124A0463068DFF8C85281032ED529
:100BD000F86CC1004FF000090AD4F86C40F0805066
:100BE000F8644FF00109F86C00F080500090009814
:100BF000DFF8A4A2DAF8000040F48070CAF8000020
:100C0000FFF7C0FE8346DAF80000C10500F102815B
:100C1000FFF7B8FEA0EB0B000328F4D30324A04693
:100C2000B9F1000F03D0F86C20F08050F8643078F0
:100C3000C10705D5FA6FB06B920840EA8202FA67E5
:100C40003178880705D5F96FF06B21F00C0101436D
:100C5000F9673178480705D5F96F306C21F030011C
:100C60000143F9673178080705D5F96F706C21F0F9
:100C7000C0010143F9673178C80605D5F96FB06C3A
:100C800021F440710143F9673178880605D5F96F81
:100C9000F06C21F440610143F9673168880505D59E
:100CA000F96F306E21F440210143F967316848053E
:100CB00005D5F96F706E21F440110143F967317861
:100CC000480605D5F96F306D21F440510143F967AD
:100CD0003178080605D5F96F706D21F44041014364
:100CE000F9673168C80505D5F96FB06D21F4403159
:100CF0000143F9673168C80205D5E968F06D8908D4
:100D000040EA8101E9603168880420D5F96F306FCD
:100D100021F040610143F967306FB0F1006F0ED1EF
:100D200000F0A0F813E0FFF72DFEA0EB0B0041F25E
:100D300089318842C0F08B804FF0030870E7B0F132
:100D4000806F04D100F098F8010018BF8046306829
:100D5000010314D5FA6F706F22F040620243FA6704
:100D6000706FB0F1006F02D100F07CF807E0B0F1D5
:100D7000806F04D100F080F8010018BF8046306811
:100D8000410314D5FA6FB06F22F040620243FA6754
:100D9000B06FB0F1006F02D100F064F807E0B0F17D
:100DA000806F04D100F068F8010018BF80463068F9
:100DB000410418D5FA6FF06F22F040520243FA67EF
:100DC000F06FB0F1805F03D1022100F056F807E028
:100DD000B0F1005F07D1022106F1200000F0C2F857
:100DE000010018BF80463068010406D5FA6FD6F8B6
:100DF000800022F080420243FA673168C80306D5BA
:100E0000F96FD6F8840021F000410143F9674046AC
:100E1000BDE8F28F002C7FF402AF286810F4407018
:100E200006F184041CBF616888420BD028682968D9
:100E300041F48031296020F440702A6822F4803225
:100E40002A602860C00706D5FFF79CFD8346286806
:100E500081077FF568AF2A68606822F44072024318
:100E60002A60DDE6386840F4801038607047002161
:100E700006F1200000F076B80121301D00F00EB818
:100E8000DFF8F001016841F00401016070470000E3
:100E90000C10024090100240007000402DE9F0411B
:100EA00000F0DBF809D0F16801F0030181422BD199
:100EB00050B300F0CBF80CD026E0012804D023D3A7
:100EC00003281BD016D31FE0326891071CD500F011
:100ED000B3F8306820F0806000F0C8F880463068D1
:100EE000010133D5FFF74EFDA0EB08000328F6D330
:100EF000032536E031684A05E9D405E031688A0304
:100F0000E5D431684A03E2D401252AE0012C326994
:100F100009D13B69584802405B0842EA01215B1E47
:100F200041EA435102E07B6900F07DF831613068AD
:100F300040F0806000F09AF80446306801010CD45B
:100F4000FFF720FD001B0328F7D3D1E7B968002C79
:100F5000DCD1326900F05FF8E8E73169B869014334
:100F6000316155E02DE9F04100F077F809D0F168E2
:100F700001F0030181422BD150B300F067F80CD08F
:100F800026E0012804D023D303281BD016D31FE06A
:100F9000326891071CD500F04FF8306820F080507F
:100FA00000F064F880463068810026D5FFF7EAFC3F
:100FB000A0EB08000328F6D3032529E031684A0591
:100FC000E9D405E031688A03E5D431684A03E2D404
:100FD00001251DE03B6900F026F87161306840F0A2
:100FE000805000F043F80446306881000CD4FFF7CD
:100FF000C9FC001B0328F7D3DEE7B9687269002C2F
:10100000E8D100F008F8E8E7716978690143716197
:101010002846BDE8F0811948FB68024042EA0121F8
:1010200041EAC3617047164802405B0842EA012169
:101030005B1E41EA43617047F268796822F07302EF
:101040001043491E40EA0110F0607047F06879686B
:10105000C0F30210401C884270470746054E3868AE
:101060000C46F168002511F0030F70473060FFF760
:1010700089BC000000100240FF809FFFFF80FF0737
:10108000FF80FFF938B5040009D004F170056968E4
:1010900009B900F01EF800F021F8012801D1012063
:1010A00032BD606A08B100F02AF800F00AF821F0B9
:1010B0002A01FFE7816000F01BF8BDE8324000F034
:1010C000A0B92068416821F490414160206881689E
:1010D000704700202870204600F022BA2421696061
:1010E00020680268520852000260204600F00AB8E8
:1010F0002068016841F001010160204670472046E8
:1011000000F01CB9F8B5044683482268834F136881
:10111000A168034020690B4361690343E0690B4305
:101120000343136000255168E06821F440510143F6
:101130005160A36977498A421CBF206A03439668BD
:10114000774826F4306633439360BA424FF4004345
:10115000744E33D1366806F00306032E3BD8DFE821
:1011600006F0026F60810127E169B1F5004F4FF68B
:10117000F07640F0A7805FB1012F00F09B80022F36
:101180000AD0042F00F09980082F00F09980BBE06E
:10119000FFF767FB002810D061684A0802EB4002A5
:1011A000B2FBF1F080B2A0F11001B142EFD20640E3
:1011B000C0F3420006432068C660A6E05A4FBA4218
:1011C00021D1366816F00C065DD0042E38D0082EDA
:1011D00027D00C2E46D010278A42C5D137B1022F16
:1011E00008D0042F51D0082F52D08DE0FFF739FBE3
:1011F0000028E2D0626802EB4201884202D3130366
:10120000834247D280E0494FBA420CD1366816F08B
:10121000300638D0102E13D0202E02D0302E21D000
:10122000D9E70227D8E7424FBA420BD1366816F009
:10123000C00628D0402E03D0802EF2D0C02EEEE77C
:101240000427C9E73B4FBA420ED1366816F4407600
:1012500019D0B6F5807FF3D0B6F5007FE1D0B6F5B2
:10126000407FB8D10827B7E78A42B4D1366816F470
:10127000406608D0B6F5806FE2D0B6F5006FD0D0EA
:10128000B6F5406FCBE70027A6E7FFF79EFAAFE77A
:101290001846AFE7010E560816EB002069410023FF
:1012A00000F07AF9A0F54071234A91422CD22168CE
:1012B000C8602AE0FFF7DDFA6CE7FFF786FA69E716
:1012C000184669E747B1012F16D0022F07D0042F27
:1012D00015D0082F16D017E0FFF7C3FAA8B1616840
:1012E00000EB5100B0FBF1F080B2A0F11001B1426F
:1012F0000AD22268D06008E0FFF7BBFAEEE7FFF7FA
:1013000064FAEBE71846EAE70125002020666066EC
:101310002846F2BD00800040F369FFEF003801402D
:101320000024F400881002400044004000480040BF
:10133000004C00400050004000FD0F0090F82410C9
:10134000CA0706D502685368816A23F400330B4349
:10135000536090F824108A0706D502685368C16A62
:1013600023F480330B43536090F824104A0706D5CA
:1013700002685368016B23F480230B43536090F899
:1013800024100A0706D502685368416B23F4004312
:101390000B43536090F82410CA0606D50268936880
:1013A000816B23F480530B43936090F824108A06DA
:1013B00006D502689368C16B23F400530B43936016
:1013C00090F824104A0610D502685368016C23F483
:1013D00080130B435360036CB3F5801F05D1536832
:1013E000416C23F4C0030B43536090F824100A06A9
:1013F00006D501684A68806C22F4002202434A60E4
:101400007047F8B5044604F170050020E8606FF0FD
:101410007E47FFF7B7FA0646206801680A0708D535
:101420000097334600224FF40011204600F016F8D2
:1014300060B9206801684A070AD500973346002240
:101440004FF48001204600F009F808B10320F2BDF6
:1014500020206860A86000202870F2BD2DE9F041CE
:10146000069C05460E4690461F462868C1693140D5
:10147000B1420CBF01200020404528D114F1010FDA
:10148000F3D0FFF77FFAC01B844200D34CB9286821
:10149000016821F4D071016000F01CF80021017096
:1014A00013E0286801684A07DFD5C1690A05DCD561
:1014B0004FF4006101622868026822F4D072026071
:1014C000002200F007F8C1600270032000E0002055
:1014D000BDE8F0812868816849084900816005F10C
:1014E00070002021416081607047000080B5254870
:1014F0002549264A016042600021C1604FF08053B7
:1015000000220C21836002614161826102624262B9
:10151000FFF7B8FD18B1BDE8014000F03BB901BDCF
:1015200038B586B0044601A8142100F035F92468C6
:10153000154DAC4223D11648016941F0010101610A
:10154000016901F0010100910099026842F0400236
:101550000260006800F0400000900098FFF750FA29
:101560004FF4C071019102220021039102920821DF
:1015700003220591049201A9064800F011F907B071
:1015800030BD000018040020008000402433030018
:101590004C10024000180048D3BBD9B1B2F5803FCF
:1015A0005BD2022A1ED98C46B1FBF2F102FB11C3B9
:1015B0001B0443EA1043B3FBF2FC02FB1C3380B272
:1015C00040EA0343B3FBF2F002FB103240EA0C4066
:1015D00000237047022A05D98446B0FBF2F002FBD3
:1015E00010C270474AB105D100F0010249085FEA14
:1015F0003000704700220023704700F0C7B90B008D
:101600000200002100207047F7D30022002370471A
:10161000904271EB030CF2D370B5B1FA81F4B3FAD6
:1016200083F52C1BA340C4F1200532FA05F63343A1
:10163000A2405FF00046E64002E05B085FEA32024B
:10164000841A71EB030524BF204629467641F4D362
:1016500002000B003000002170BD70B5B1FA81F4BA
:10166000B2FA82F5C4F120046419B4F12006DAD389
:10167000B2405FF00044F440002502E052085FEA07
:101680003303C61A71EB020E24BF30467146644123
:101690006D41F3D302000B002000290070BD000053
:1016A00080B500F075F900F00EF800F081F9FFF751
:1016B0001DFF00F001FAFFF7D1F80A21B0FBF1F0AD
:1016C000FFF7F2F9FEE718B5B9B02F4C05A821468F
:1016D000442200F065FA6846142100F05DF816A86F
:1016E00004F144018C2200F05BFA00F065FA27480F
:1016F000016821F01801016014220121059207916F
:101700000B91602200210C910D92022101220F9178
:101710001092119213911491472206211292159161
:1017200005A8FEF743FD032101910F204FF48061CE
:101730000090002203910292049202216846FEF773
:10174000BAFF0022299242F220010122169117923B
:1017500018924FF0806118223291199202214FF4B1
:1017600080121A911B911C911D9216A8FFF7DAF9AD
:101770004FF40070FFF712F9FFF782FB3AB010BD8B
:101780008021034800F0E6B8D81F000890100240FE
:101790000004004870470000002200F015BA000065
:1017A0002DE9F84F4FF000086E4A0F2304460D460E
:1017B00035E06D4EB44214BF082607268E4046EA37
:1017C0000E064CF82760C74368490E6807EA060C06
:1017D0006E68F60348BF40EA0C0CC1F800C04E68C2
:1017E00007EA060C6E68B60348BF40EA0C0CC1F865
:1017F00004C08E6807EA060C6E68F60248BF40EA2D
:101800000C0CC1F808C0CE6807EA060C6F68BE026F
:1018100048BF40EA0C0CC1F80CC008F10108296867
:1018200031FA08F000F08F80012000FA08FE1EEA6D
:101830000100F2D04FEA48070321B9406FEA010CDA
:101840006968012918BF022903D0112918BF12297C
:1018500010D1A168EE680CEA0101BE403143A160DD
:10186000616821EA0E066968C1F3001101FA08F106
:1018700031436160E168AE680CEA0101BE4031436A
:10188000E1604FEA88016E68022E18BF122E13D154
:101890004FEAD80604EB860E01F01C09DEF8206042
:1018A000D5F810B003FA09FA26EA0A060BFA09F984
:1018B00049EA0606CEF82060266895F804E00EF0A6
:1018C000030E0CEA06060EFA07F7374327606F6827
:1018D000FE00A2D51768DFF898C047F0010717602F
:1018E00001F00C01166806F00106009603FA01FEED
:1018F000009F4FEA98075CF8276026EA0E0EB4F1C5
:10190000904F08BF00261DD01A4EB44208BF0126D2
:1019100018D0194EB44208BF022613D0174EB44255
:1019200008BF03260ED0164EB44208BF042609D0C5
:10193000144EB44208BF052604D0134EB4427FF4BF
:1019400038AF06263AE7BDE8F18F0AB181617047EA
:1019500081627047426901EA0203914341EA03410F
:101960008161704760100240001C00480004014083
:10197000080001400004004800080048000C00482E
:10198000001000480014004800180048704700008C
:10199000032010B5FFF75DF80020FEF7D1FF00240B
:1019A000002814BF012400F029F9204610BD0000D2
:1019B00070B586B068461421FFF7EEFE354C364E02
:1019C000256845F0040525602068344D00F00400CA
:1019D00005900598216841F080012160226802F09D
:1019E000800205920598216841F002012160226879
:1019F00002F0020205920598216841F04001216041
:101A0000226802F0400205920598FEF7F9FF21686E
:101A100041F00101216000222068214C00F001000A
:101A200005904FF4814105982046FFF78EFF002274
:101A300040212846FFF789FF002280213046FFF72A
:101A400084FF4FF400501749009001910022029248
:101A500069463046FFF7A4FE4FF4814100F024F8B8
:101A60002046FFF79DFE2020002100900191029169
:101A700028466946FFF794FE402100F015F82846F5
:101A8000FFF78EFE802100F00FF83046FFF788FE4A
:101A900006B070BD4C100240000800480018004815
:101AA0000004004800001110009101220021029161
:101AB000039101926946704780B534484FF0A041C8
:101AC00006220160426000210122C26101620223FC
:101AD00000220121C3608361426281620263C162AC
:101AE00000F0A4F818B1BDE80140FFF753BE01BDF6
:101AF00010B586B0044601A81421FFF74DFE2468F6
:101B0000B4F1A04F3FD1224C206840F0010020608A
:101B10000222216801F0010100914FF4E851009880
:101B2000019102920021039103220A21059104925E
:101B300001A94FF09040FFF733FE4FF400700021F1
:101B40000190029103914FF0904001A9FFF728FE08
:101B5000206840F480502060216801F48051009199
:101B60000098E168C8000CD4E16841F08051E16060
:101B700000F010F8FEF741FFE06820F08050E060D0
:101B800001E0FEF73AFF06B010BD00001000002093
:101B90004C100240E06800F08050009000987047C0
:101BA0004AB1000011F8013B521E00F8013B1CBF76
:101BB00011F8013BF8E770470248016841F4807171
:101BC000016070470070004000B500BF13009646EA
:101BD0009446103928BFA0E80C50FAD85FEA417C3F
:101BE00028BF0CC048BF40F8042BC90728BF20F805
:101BF000022B48BF00F8012B00BD00000A4881B04D
:101C0000816841F001018160816801F0010100916A
:101C10000099026842F080520260006800F0805033
:101C20000090009801B070475810024070B5040051
:101C30008AB04BD0266804F56F75687820B900210A
:101C400029702046FFF754FF03206870F16BC80528
:101C50005CBF00212161206800F087F883B000F0AC
:101C60004EF80EBC206800F04FF800282CD12068F8
:101C7000002100F080F800211C2000260AE010FB63
:101C800001F222443C32012353701170D1800023B1
:101C900000F02EF862689142F1D3002109E010FBB8
:101CA00001F2224402F5FE7200231170537000F01D
:101CB0001FF862689142F2D383B000F020F80EBCA6
:101CC000206800F06FF818B10220687001200DE064
:101CD00084F8380001216970606A012804BF204639
:101CE00000F052F9206800F026F900200AB070BD1B
:101CF000491CD6709360D6605361C9B27047211DEC
:101D000068463422FFF74CBF0EB418B50446089855
:101D1000012817D1A06B20F48030A063E168DFF8C0
:101D20005C020140E160E16821F44011E1600F983C
:101D3000012803D1E06840F48010E060204600F004
:101D400008F90FE0E06840F04000E060204600F055
:101D500000F90C990029A16B0CBF41F4803121F4EA
:101D60008031A16312BC5DF810FB8168490849000D
:101D700081600020704780B5C26822F0C04201290E
:101D8000C26008D1C16841F00051C160322000F04A
:101D90000FF9002002BD19B9C16841F08041F4E794
:101DA000012002BD0EB42DE9F0430546044600268D
:101DB0000021002004EB8102491C0F29C2F8040114
:101DC000F8D3DDF84490B9F1000F05F5006710D1A4
:101DD000786840F002007860A06B20F40010A063E7
:101DE000216841F040012160206840F080002060BF
:101DF00003E0A06B40F40010A06305F560630321CD
:101E00001E6038683860204600F08DF810212046AA
:101E100000F06DF800B10126204600F077F800B11F
:101E200001260020386178612A46F8614FF67F3339
:101E30004FF0904C4FF0006E002503E00D600D61F7
:101E40008B60401C079988422AD202EB401101F5B1
:101E50001061D1F80080B8F1000FEFD5002806BF5F
:101E600002F51068C8F800E0C1F800C0E7E70D60AF
:101E70000D618B60401C0799884213D202EB401120
:101E800001F53061D1F80080B8F1000FEFD50028DE
:101E900006BF02F53068C8F800E0C1F800C0E7E707
:101EA0000020E8E7386920F480703861A5616FF0A0
:101EB00080406061A169DFF8C80041F01001A161B4
:101EC000A1690143A1610D9818B1A06940F0080013
:101ED000A061B9F1010F05D1A06940F0804040F048
:101EE0000400A0613046BDE8F0035DF810FB8901F5
:101EF00041F020010161DFF88C10491E04D0026915
:101F00009306FAD400207047032070471021016126
:101F1000DFF87010491E04D00269D306FAD40020FD
:101F200070470320704700F5006002681143FFE727
:101F300001600020704700F5606100F500600A68EC
:101F4000920892000A60416841F00201416000205D
:101F50007047DFF830201146491E0DD00369002B71
:101F6000FAD5016941F001010161521E04D00169F5
:101F7000CB07FAD40020704703207047BFFFBDFF96
:101F800000383C80410D0300016800F57D7001229E
:101F9000002382600370886940F000608861486DAA
:101FA00040F0805040F0030048650020704700007A
:101FB00038B50446FEF7E6FC14F1010F054602D0E1
:101FC000044801786418FEF7DDFC401BA042FAD3F8
:101FD00031BD00BF00000020000000000000000034
:101FE00000000000000000000000000000000000F1
:101FF00000000000000000000000000000000000E1
:1020000000000000000000000000000000000000D0
:1020100000000000000000000000000000000000C0
:1020200000000000000000000000000000000000B0
:1020300000000000000000000000000000000000A0
:102040000000000000000000000000000000000090
:102050000000000000000000000000000000000080
:102060000000000000000000000000000000000070
:102070000000000000000000000000000000000060
:102080000000000000000000000000000000000050
:102090000000000000000000000000000000000040
:1020A00000000000000000000E48016841F47001CB
:1020B000016000220C49086840F0010008608A6055
:1020C0004FF480520B68094803400B60CA6000203F
:1020D0000B68074A23F480230B6088614FF000618E
:1020E0001160704788ED00E000100240FFFFF6EA43
:1020F00008ED00E000000000000000000102030401
:1021000006070809A0860100400D0300801A06009A
:1021100000350C0040420F0080841E0000093D0085
:1021200000127A000024F40000366E010048E80135
:10213000006CDC0230B450F8041B79B102684368CB
:1021400002440830DC0744BFA9F10104E31852F847
:10215000045B43F8045B091FF9D1ECE730BC70471E
:1021600010B5074979441831064C7C44163404E014
:102170000A68081D114488470146A142F8D110BDE4
:1021800060000000800000007047FEE7FEE7FEE709
:10219000FEE770477047704780B500F007F8FEF71C
:1021A00097FCBDE80140FFF7EBBA00000248416828
:1021B00002788A1842607047000000204EF688516D
:1021C000CEF20001086840F470000860BFF34F8F42
:1021D000BFF36F8F4FF00070E1EE100A7047000000
:1021E0000BE9FFFF88040000100000200000000041
:1021F00045FFFFFF10000000640000000000002009
:102200000000000000F00DF8002801D0FFF7A8FF43
:10221000AFF300800020AFF30080FFF741FA00F039
:1022200002F80120704700F001B800000746384668
:1022300000F002F8FBE7000080B5AFF30080024A2F
:1022400011001820ABBEFBE72600020001488047C2
:1022500001480047A92000086D2200080100000085
:10226000000000001000000000093D00AFF30080F6
:10227000FFF7A4FFFFF7C6FF000000000102030400
:10228000FFF7FEBFFFF7FEBFFFF7FEBFFFF7FEBF82
:10229000FFF7FEBFFFF7FEBFFFF7FEBFFFF7FEBF72
:1022A000FFF7FEBFFFF7FEBFFFF7FEBFFFF7FEBF62
:1022B000FFF7FEBFFFF7FEBFFFF7FEBFFFF7FEBF52
:1022C000FFF7FEBFFFF7FEBFFFF7FEBFFFF7FEBF42
:1022D000FFF7FEBFFFF7FEBFFFF7FEBFFFF7FEBF32
:1022E000FFF7FEBFFFF7FEBFFFF7FEBFFFF7FEBF22
:1022F000FFF7FEBFFFF7FEBFFFF7FEBFFFF7FEBF12
:10230000FFF7FEBFFFF7FEBFFFF7FEBFFFF7FEBF01
:10231000FFF7FEBFFFF7FEBFFFF7FEBFFFF7FEBFF1
:10232000FFF7FEBFFFF7FEBFFFF7FEBFFFF7FEBFE1
:10233000FFF7FEBFFFF7FEBFFFF7FEBFFFF7FEBFD1
:10234000FFF7FEBFFFF7FEBFFFF7FEBFFFF7FEBFC1
:10235000FFF7FEBFFFF7FEBFFFF7FEBFFFF7FEBFB1
:10236000FFF7FEBFFFF7FEBFFFF7FEBFFFF7FEBFA1
:10237000FFF7FEBFFFF7FEBFFFF7FEBFFFF7FEBF91
:10238000FFF7FEBFFFF7FEBFFFF7FEBFFFF7FEBF81
:10239000FFF7FEBFFFF7FEBFFFF7FEBFFFF7FEBF71
:1023A000FFF7FEBFFFF7FEBFFFF7FEBFFFF7FEBF61
:1023B000FFF7FEBFFFF7FEBFFFF7FEBFFFF7FEBF51
:1023C000FFF7FEBFFFF7FEBFFFF7FEBFFFF7FEBF41
:1023D000FFF7FEBFFFF7FEBFFFF7FEBFFFF7FEBF31
:0823E000FFF7FEBFFFF7FEBF8F
:040000050800226D60
:00000001FF
