:020000040800F2
:10000000580B0020B9440008E9430008EB430008FE
:10001000ED430008EF430008F14300080000000032
:10002000000000000000000000000000F343000892
:10003000F543000800000000F7430008F9430008FA
:10004000E3440008E7440008EB440008EF440008DC
:10005000F3440008F7440008FB440008FF4400088C
:1000600003450008074500080B4500080F45000838
:1000700013450008174500081B4500081F450008E8
:1000800023450008274500082B4500082F45000898
:1000900033450008374500083B4500083F45000848
:1000A00043450008474500084B4500084F450008F8
:1000B00053450008574500085B4500085F450008A8
:1000C00063450008674500086B4500086F45000858
:1000D00073450008774500087B4500087F45000808
:1000E00083450008874500088B4500088F450008B8
:1000F00093450008974500089B4500089F45000868
:10010000A3450008A7450008AB450008AF45000817
:10011000B3450008B7450008BB450008BF450008C7
:10012000C3450008C7450008CB450008CF45000877
:10013000D3450008D7450008DB450008DF45000827
:10014000E3450008E7450008EB450008EF450008D7
:10015000F3450008F7450008FB450008FF45000887
:1001600003460008074600080B4600080F46000833
:1001700013460008174600081B4600080000000050
:100180001F46000823460008274600082B460008A3
:100190002F46000833460008374600083B46000853
:1001A0003F46000843460008474600082DE9F04F47
:1001B0000FF2A41CA1B0DCE90089CDE900892A9DD9
:1001C000DFF8DC9B049100248DF843500D944FF030
:1001D000FF38824616461F460FE0B3462C461BF8F2
:1001E000011B0498D0470028049000F0A2800D98CD
:1001F000401C641E0D90F2D176193078252808D164
:10020000002100220791089209910A920B910C9209
:100210000DE06A464146304600F0DAFF050001D1A4
:100220000D98A1E0D9D50125E6E741F0010116F8C6
:10023000010F2028F9D023280CD02B2804D02D28FA
:1002400005D0302809D076E041F00201EFE741F017
:100250000401ECE741F00801E9E741F01001E6E7AD
:100260000F9209E00F98484505DA00EB800402EB95
:100270004402303A0F92761C3278A2F130000A28FC
:10028000F0D330782E2818BFCDF8388022D116F858
:10029000010F2A2807D138683860761C50F8042BE3
:1002A00038600E9216E02D280CBF761C002000222C
:1002B0000E920AE040B90E9A4A4505DA02EB820432
:1002C00003EB4403303B0E93761C3378A3F13002EA
:1002D0000A2AEFD3ADF8401021A0317800F082FF58
:1002E00008B116F8010B8DF842009DF8420068280D
:1002F00004D1307868280AD1622105E06C2804BF57
:1003000030786C2803D171218DF84210761C12A828
:1003100006903A4616F8013B02A9504600F064F8F0
:1003200038B912AA02A9504600F0C8F900287FF592
:1003300064AF404618E02A2892D13A683A6052F8F1
:10034000040B3A6000280F9003D540420F9041F013
:100350000401761C95E7000000000000000000008A
:10036000686A6C747A4C000021B0BDE8F08F622896
:1003700020D0682811D06A2803D06C2827D0712893
:1003800025D10868C01D20F007000860D0E90023CF
:1003900008300860194610467047002A0A680A604B
:1003A000106803D0121D0A6000B217E0121D0A6027
:1003B00080B217E0002A0A680A60106803D0121D94
:1003C0000A6040B20AE0121D0A60C0B20AE0002AC8
:1003D0000A680A60106803D0121D0A60C1177047CE
:1003E000121D0A60002170477CB50D4611461C465F
:1003F0002E69B4F1250200F04F811C3A00F0848090
:10040000121F022A40F280800E3A00F00981521F2A
:1004100059D0093A78D0921E16D0521E35D0521EAD
:10042000022A71D9121F30D0521F00F09880521E3C
:1004300049D0521E00F0E280D21E00F0FF80921ED2
:1004400041D0D21E3FD02DE195F83A406C2C09D016
:100450006869421C6A610A680A6052F8043B0A60D3
:10046000335429E10A680A6052F8043B0A60009399
:10047000002201924FF0FF332B636A46294600F0B9
:1004800098F9002840F1188103E195F83A0001221B
:10049000FFF76DFFC5E90001002904D56869411C1B
:1004A00069612D220DE0288F810704D56869411C00
:1004B00069612B2205E0C00721D56869411C69618B
:1004C000202232541BE095F83A000022FFF74FFF3C
:1004D000C5E9000195F83800010710D5D5E90023DA
:1004E000002B08BF002A0AD044F02000782806D14B
:1004F000686930213154401C421C6A6134542146E1
:1005000068693044E86087E00868C01D20F0070093
:100510000860D0E9002308300860C5E90023D5E968
:100520000001C80F04D06869411C69612D220DE0EB
:10053000288F810704D56869411C69612B2205E079
:10054000C00704D56869411C69612022325468697A
:100550003044E8602146284600F036FAACE005F168
:100560003A02507820B14FF0FF340FF6043074E0B7
:100570001078622808D0682824D06A2812D06C2805
:100580002ED071280ED02BE00A680A6052F8040BB6
:100590000A6020B94FF0FF340FF6EC205DE0E96A05
:1005A000017089E00A680A6052F8040B0A6020B9F9
:1005B0004FF0FF340FF6D0204FE0EA6AD317C0E9BE
:1005C000002379E00A680A6052F8040B0A6020B937
:1005D0004FF0FF340FF6B0203FE0E96A01806BE096
:1005E0000A680A6052F8040B0A6020B94FF0FF3421
:1005F0000FF6942031E0E96A01605DE00A680A6064
:1006000052F8040B0A60002120F0000221F0FF33B1
:10061000C5E90023EE607821284600F02DF94BE073
:100620006C2285F83A200B680B6053F8042B0B60A2
:1006300052BB4FF0FF340FF684200EE095F83A20BD
:100640006C2AF0D00868086050F8044B0860EC6031
:100650003CB94FF0FF340FF6482000F0EBFD201AB4
:1006600076BD2E6B002E04D5204600F003FE044616
:1006700008E032460021204600F026FE002814BF84
:10068000041B3446AC6117E0294600F092F80028BC
:1006900012D54FF0FF3076BD6869411C6961252293
:1006A000325409E06969481C6861252272542100AE
:1006B00002D0431C6B613454002076BD2DE9F0411B
:1006C0000E4605469046726B7069316AB46A121A1A
:1006D000B069521A716A121AF069521A121A96F80F
:1006E0003800141B41070DD4002C0BDD2746B068E1
:1006F0002021A8470028B06057D0F06A401C7F1E18
:10070000F062F4D1736942463146284600F098FC05
:1007100000284AD1376A002F0ADDB0683021A84787
:100720000028B06041D0F06A401C7F1EF062F4D116
:10073000B369F2683146284600F082FCA8BB776AAC
:10074000002F09DDB0683021A847B06068B3F06AB7
:10075000401C7F1EF062F5D1F068B169F369421860
:100760003146284600F06CFCF8B9B76A002F09DD65
:10077000B0683021A847B060B8B1F06A401C7F1E55
:10078000F062F5D196F8380041070BD5002C09DD51
:10079000B0682021A847B06038B1F06A401C641EE0
:1007A000F062F5D10020BDE8F0814FF0FF30BDE8E8
:1007B000F0812DE9F8470D46A3B02F6B002F0646B8
:1007C000904648BF6FF000470FF60C1400F0A8FDEC
:1007D000D4E90023696B4018CDE90123812828BFA3
:1007E0004FF0FF3042D20024002F33DDD8F8001044
:1007F00001AA684600F0EEFC8146B9F1000F38D43A
:10080000D8F8000010B9B9F1010932D44F4521DB05
:100810006869484481280AD30021696303AA2946EC
:100820003046FFF74BFF040014D40020686103AB8F
:10083000D5F814A04A46694603EB0A0000F076FD9D
:10084000CA44C5F814A058F8040B002818BFA7EB39
:100850000907C9D14CB903AA29463046FFF72EFF34
:10086000044614B9002068616863204624B0BDE8DE
:10087000F0874FF0FF34F8E72DE9FC4307466F2976
:100880003E6908BF082405D041F02000782814BF35
:100890000A2410243C25D7E90023642918BF6929BC
:1008A0009046994605D1002B03D5D8F1000869EB95
:1008B0004909B9F1000F08BFB8F1000F1FD1386B1B
:1008C000E8B9082C4CD197F83800010748D53020FA
:1008D0003B2586F83B0043E000280ED597F838000A
:1008E00000F01400102808D17B6B7969386A5B1A14
:1008F0001B1A9A1A002AC8BF3A62BDE8F3838DF822
:100900000010404649462246E31700F01BFD3032F6
:10091000D0B26D1E3A28019504DB9DF80000A0F1CD
:1009200051018A187255404649462246E31700F0A5
:1009300009FD80465FEA010908BFB8F1000F03D046
:10094000F86871198842DCD3082C09D197F838006F
:10095000010705D5705D302802D06D1E302070551E
:10096000C5F13C02BA617119F960386B8242B3DAA1
:10097000821A3A624FF6EF70398F01403987BDE82D
:10098000F3832DE9D04306460F4614464FF0000886
:10099000DFF8109412E0E00707D542464B46304698
:1009A000394600F053FD06460F464046494642464A
:1009B0004B4600F04BFD641080468946002CEAD17E
:1009C00030463946BDE8D0832DE9F84F05468A46C2
:1009D0004AF020048EB0D5E90089612C02AE09D01E
:1009E000286B002848BF062003D408BF672C01D11C
:1009F00001202863D5E900014A005215521C0DD18F
:100A00000B030BD0AAF1610103201A29A86102D2BD
:100A10000FF2CC6110E00FF2CC610DE04A005215EC
:100A2000521C0ED10B030CD1AAF1610103201A292B
:100A3000A86116D30FF2B461E868032200F076FCD7
:100A4000C0E1CDE90C01DDE90C2323F00043B3F54F
:100A5000801F0DD20027002B08BF002A019703D169
:100A600011E00FF28461E7E701AA00F0C1FD0AE09E
:100A7000CD48CE4900EB1350DDE90C2301900B402B
:100A8000CB4910461943C5E90001612C0DD1E86836
:100A900030210170821CBAF1610FEA600CBF78212D
:100AA000582141706869801C6861D5E90001CDE971
:100AB0000C01DDE90C2333F0004104BF00280023C2
:100AC00000F04881612C40F0A080286B4946002846
:100AD0004CBF4FF0210B00F1010B404600220023D8
:100AE000DDE90C8900F0BCFD01990BF1010738BF6D
:100AF00089F00049091F002F01918DF808200DF1A0
:100B0000090040F33581A94900910646404649460F
:100B10000022002300F0BCFD80F029814800400D38
:100B200000F11C0211D0002A0FDD40F2FF739A423F
:100B300005DBA04909F000400143002011E0009BC3
:100B4000194041EA025140460BE028F0000039F01C
:100B5000004108BF00280FBF49461C22494600F04B
:100B6000AFFD8046894600F049FEFF1F002F044676
:100B700009DD00F061FE02460B464046494600F0A2
:100B80006DFE80468946F01D072104E004F00F0247
:100B900000F8012D2411002C01DD491EF6D5491E57
:100BA0005CBF002200F8012DF9D5DCE000201946D9
:100BB00002AA0A4400E05B1E12F80149491E844261
:100BC000F9D00F2804D10DF10900425C521C4254A7
:100BD000002904D50198001D02AE5B1C0190581E2F
:100BE0000CD43118AAF13A040A783032D7B23A2F2D
:100BF000A8BFA218401E01F80129F5D5286B0028CE
:100C000040F1A780591E2963A3E001996A4A47F27F
:100C10009750414391FBF2F2019229F00046D2F144
:100C2000070204DD40463146FFF7ABFE0AE05242C0
:100C300000206249FFF7A5FE02460B4640463146BA
:100C400000F07EFE8046662C286B06BF019F0A37A7
:100C500006273F18142FC8BF142730208DF808002E
:100C600089460DF1090000E03046002F34DD0646CC
:100C70004046494600F088FF01460A4606F108034F
:100C800004200A26B2FBF6F606EB860EA2EB4E0215
:100C9000303203F8012C0A22B6FBF2F202EB820E8C
:100CA000A6EB4E063036401E03F8026DE9D1083F30
:100CB000002F03F10806D7DD084600F079FF024651
:100CC0000B464046494600F0C9FD00223C4B00F06F
:100CD000BDFB80468946CBE70DF10901401A0DF1B5
:100CE000090604E00199491E401E0191761C3178E5
:100CF0003029F7D0662C02D10199491C03E0652CFC
:100D00000CBF012100212B6BCB189842B8BF431EAA
:100D1000002B1ED4834204DAF05C3528A8BF3920AA
:100D200000DA30201946721E02EB010800E05B1E5B
:100D300018F80199491E8145F9D0392802D1705C13
:100D4000401C7054002904D50198401C16465B1CB9
:100D50000190019800B200901BB2324651462846DD
:100D600000F034F82EE0C61D002F3FF7CFAE30461E
:100D70000DF10901401A03465845C8BF5B46002BD8
:100D80000DF109063FF53AAF8342BFF60FAF0DF103
:100D90000900C15C07297FF709AF0F2007E70000B2
:100DA000CBCCCC0C0000244002FCFFFFFFFF0F80E7
:100DB0000000E03F0000F07FA08601000000F03F4F
:100DC00084D797410FB0BDE8F08F00002DE9F847B8
:100DD00083B006468A461746984600F0FDF9B8F1FA
:100DE000000F406A356B90F8009002DC4FF001086C
:100DF000BFA74AF02000BDF93040662808BF641C38
:100E000015D0672840F0848014F1040FC0F286806A
:100E1000AC4280F2838096F83800641C010702D44B
:100E2000A845B8BF454620B22D1A48BF00250FFA85
:100E300084FAF068B169BAF1000F25DC4A1C30234E
:100E40004354002D03DC96F83800010703D5F06801
:100E500000F80290521C15EB0A0FB8BF6C4220B28A
:100E6000441941424445B8BFA046B26171620FFACD
:100E700088F5F561F068B3692A463946184400F0F0
:100E800055FA641BB462C4E022B29045084417DAF4
:100E90004246394600F04AFAB0694044B061AAEBD4
:100EA0000801002D716203DC96F838100A0705D599
:100EB000F16801F80090F069401CF061B562A8E0AB
:100EC000394600F033FAB069002D5044A8EB04080D
:100ED00003DC96F838100A0703D5F16801F8009092
:100EE000401CB0610FFA88F08542F368B069B8BF62
:100EF000A8460FFA88F207EB0A01184400F016FA28
:100F0000B1690FFA88F00144B161281A706280E07B
:100F1000BAF1610F14D14FF0700A16E0A84504DA57
:100F200096F838100A0758BF45466D1E48BF002581
:100F3000BAF1670F14BF4FF0450A4FF0650A04E09D
:100F4000BAF1410F08BF4FF0500AB169F368481C6D
:100F5000B061002D17F8012B5A5403DC96F83810B5
:100F60000A071BD5F168431CB36101F80090002DFE
:100F700014DDA8F101080FFA88F039468542F768B8
:100F8000B8BFA8460FFA88F2F81800F0CFF9B06998
:100F90000FFA88F108446D1AB0617562F068B169A2
:100FA0000844002C80F800A003D42B224270811C3E
:100FB00003E02D2141706442811C00206A460AE052
:100FC00023460A2493FBF4F404EB8405A3EB4503C6
:100FD00002F8013B401C24B2002CF1DC012806DCA5
:100FE0004AF02002652A04BF302201F8012B48B9DB
:100FF000302001F8010B07E0401E1DF800303033AF
:1010000001F8013B0028F7DCF268B0691044091AC6
:10101000F16196F8380000F0140010280DD17269C3
:10102000B169706A8A18F1698218B06A8A188218E0
:10103000706B8242BCBF821A326204B0BDE8F08796
:10104000F8B505460E4617461C46002074B117F841
:10105000011BB068A847B06030B1F06A401CF06274
:101060000020641EF3D1F2BD4FF0FF30F2BD00004E
:101070007072696E74665F733A20256E20646973BE
:10108000616C6C6F776564007072696E74663A208B
:1010900062616420256E20617267756D656E7400F3
:1010A0007072696E74665F733A20626164202573A2
:1010B00020617267756D656E740000007072696EF4
:1010C00074665F733A2062616420256C73206172DC
:1010D00067756D656E740000000000000000000080
:1010E0006E616E004E414E00696E6600494E4600CC
:1010F0003000F0B40246106895681318506803EB8E
:101100005004C0071DD54D441BE013F8017B05F8C2
:10111000017B491EF9D1A0B1B60813F8011B06F0F6
:101120000306032E08BF13F8016B01EB06214942A9
:10113000801C294405D011F8016B05F8016B401E95
:10114000F9D1A3420ED013F8016B16F0030104BFCE
:1011500013F8011BC91C30090F28DAD113F8010B51
:101160000F30D6E7F0BC02F10C0070471B48704707
:1011700070B45368D418042B09DA41B1057804F827
:10118000015B10F8016B16B15B1C491EF3E753605D
:1011900070BC704738B514461D4661B1FFF7E8FFD3
:1011A00061686A6B204690476FF00102811A02D095
:1011B000491E01D001E003E005E00021616032BD7D
:1011C0006FF0010032BD4FF0FF3032BDDA6B1047D7
:1011D000024BDFE7014BF9E7014870474800002068
:1011E00010000020C9B202788A421AB11CBF10F860
:1011F000012FF9E718BF0020704730B4002513E035
:1012000050F8042BD30744BFA9F101039A18091F12
:10121000042942F8045BFAD213468C0744BF1580B8
:101220009B1CC90748BF1D7050F8041B0029E7D15B
:1012300030BC704780B500B906A005490B681BB1EA
:1012400022220021984701E000F0BFFC222002BDCD
:1012500048070020636F6E73747261696E74206852
:10126000616E646C65723A20626164206D657373AF
:101270006167650000F10103810704D010F8011BCC
:10128000820781B1FAD10268A2F10131914311F0D4
:10129000803104BF50F8042FF6E709BAB1FA81F1A2
:1012A00000EBD100401CC01A7047B1F5807F02D31B
:1012B0004FF0FF3070470170012070470078401EEA
:1012C0008041C043C00F7047C9B2830706D0521E89
:1012D00022D310F8013B9942F7D11FE0083A13D30B
:1012E00002F1040241EA012141EA014150F8043BC4
:1012F000121F21BF4B40A3F1013C2CEA030C1CF050
:10130000803FF3D0C9B2001F083210F8013B521ED3
:1013100028BF91EA030FF8D818BF0120401E70477C
:1013200080B5FFF723FF006C02BD00004AB100004A
:1013300011F8013B521E00F8013B1CBF11F8013BA4
:10134000F8E77047D3BBD9B1B2F5803F5BD2022A30
:101350001ED98C46B1FBF2F102FB11C31B0443EA18
:101360001043B3FBF2FC02FB1C3380B240EA0343A0
:10137000B3FBF2F002FB103240EA0C40002370474E
:10138000022A05D98446B0FBF2F002FB10C2704776
:101390004AB105D100F0010249085FEA3000704708
:1013A00000220023704700F013BC0B000200002154
:1013B00000207047F7D3002200237047904271EB62
:1013C000030CF2D370B5B1FA81F4B3FA83F52C1B98
:1013D000A340C4F1200532FA05F63343A2405FF082
:1013E0000046E64002E05B085FEA3202841A71EBD5
:1013F000030524BF204629467641F4D302000B00A2
:101400003000002170BD70B5B1FA81F4B2FA82F5F6
:10141000C4F120046419B4F12006DAD3B2405FF0BD
:101420000044F440002502E052085FEA3303C61A84
:1014300071EB020E24BF3046714664416D41F3D317
:1014400002000B002000290070BD0000B0B581EA49
:10145000030C0CF0004C40F2FF7515EA11541DBF4F
:1014600015EA1357AC42AF4239E0E41923EA455379
:1014700043F48013C90241F0004141EA505EC702C3
:101480001100A7FB020200284FF00000EEFB012034
:101490004FF00001E3FB072118BF42F001024018A2
:1014A00000214941E3FB0E01A4F580640F0302D241
:1014B00052004041494154F101046CDD470872F18A
:1014C000004250F1000051EB0451A1F580115CBFC6
:1014D00041EA0C01B0BD4CEA05510020B0BD05EA5F
:1014E0001357AC4214BFAF4241E050EA410E1CBF5B
:1014F00052EA430E02E061460020B0BD24423C4463
:101500001BD15FEA070EF6D0090302BF0146002097
:10151000AEF1140EB1FA81F7AEEB070401FA07FE43
:101520000C37C7F1200100FA07F7C8404EEA000E59
:1015300023EA455343F48013A2E733F00043B3FAA0
:1015400083F704BFB2FA82FE77440B3FE41BB7F186
:10155000200E2FBF02FA0EF3BB40C7F1200E22FA75
:101560000EFE38BF43EA0E03BA40641C82E750EA1D
:10157000410E14BF52EA430E6FF000014FF4001702
:1015800017EB430F8ABF194617EB410FB5E74CEA3B
:1015900005510020B0BDD4F10104B4F120070FDAE9
:1015A000C4F12007520828BF42F0010210FA07F5E3
:1015B00001FA07F7E1BF2A43E0403843E1400FE07A
:1015C000352C98DCC7F1200452EA400220FA07F2D9
:1015D00018BF42F0010231FA07F0A1400A4300218E
:1015E00072F1004250F1000051EB0C01B0BD00005F
:1015F00010B5144600F002F8226010BDC1F30A5382
:1016000043B14A0012F5001F28D2A3F2FE32A1EB2B
:101610000251704750EA410C20D001F0004C31EAF1
:101620000C01B1FA81F204BFB0FA80F3D2180B3A80
:10163000B2F120032CBF00FA03F1914041EA0C0102
:101640003EBFC2F1200C20FA0CF3194390405242E5
:1016500040F2FD33D21A01EB03517047002270476C
:101660004FF4001C1CEB410F94BF1CEB430F09E02F
:1016700041EA030C50EA4C0C52EA0C0C03D299429A
:1016800008BF9042704714BF8B42824270470000EF
:101690004FF4001C1CEB410F94BF1CEB430F09E0FF
:1016A00041EA030C50EA4C0C52EA0C0C03D28B4278
:1016B00008BF8242704714BF9942904270470000B1
:1016C000124254D440F2FF7C1CEA11530FD0634500
:1016D00031D09B1863453CBF01EB0251704701F0CC
:1016E000004141EA0C510020AFF30080704750EAFE
:1016F000410320D001F0004C91EA0C011CD0B1FA5A
:1017000081F30B3B9A420DD9D21A994051EA0C0150
:10171000C3F1200C20FA0CFC61449840531C40F2A9
:10172000FF7CD7E7914041EA0C01C2F1200C20FA7E
:101730000CF3194390407047B0FA80F31533202B17
:10174000E0D3202AEED3203A203B9A4209D9D21A7C
:1017500000FA03F141EA0C010020531C40F2FF7C27
:10176000B8E700FA02F141EA0C010020704752424A
:1017700040F2FF7C1CEA11530DD06345DBD0B2EB85
:10178000030C3CBFA1EB025170470CF1010221EAAE
:10179000035141F4801150EA410CCCD001F0004CCF
:1017A000352A27DC30B481EA0C01B2F1200309DAD2
:1017B000C2F12003044601FA03F5D0402843D1408A
:1017C0009C400CE0C3F12002450020FA03F418BF4E
:1017D00044F0010421FA03F091400C43002174F11C
:1017E000004550F1000051EB0C01244230BC7FF465
:1017F0007BAF70476146002076E70000C1F30A53D3
:1018000040F2FE329B1A14DDD3F120034FEAE1725D
:1018100008DDC90241EA505141F00040D84080182B
:101820005040704703F2E13010B1D24382F00040E3
:101830007047002070470000C11768B14840401A47
:10184000B0FA80F29040D21CC907C2F5846241EA26
:10185000025202EBD02140057047000070B44FF0F7
:10186000004591EA030F40F1B5816B40841A71EB9A
:10187000030603D2001BB141121973414FF4001C3F
:101880001CEB410F34BF7CEB430442E00C0DA4EB96
:101890001356352E4FDC45EAC323DB0A45EAC12146
:1018A000C912B6F120050DDD63FA05F6EB4086EAB4
:1018B0000305124218BF45F00105C01851F100019F
:1018C0000CD213E062FA06F5F2405540F3415A405B
:1018D000B340F3405A408018594107D349085FEAA2
:1018E00030005FEA350528BF45F0010501F580119C
:1018F000420875F1004250F1000041EB04514E00E6
:1019000016F5001F70BC38BF70470020090D09058F
:1019100070471CEB410F10D252EA43060BD0BCEBD0
:10192000410F05D80C0DAB43661E342EB6DD02E028
:10193000AB438018594170BC704770BC70470000C1
:10194000F0B540F2FF7581EA030C0CF0004C15EA8B
:1019500011541DBF15EA1357AC42AF42E5E0BC413C
:10196000C1F31301C3F31303801A994143F48013A5
:1019700004D2641E4000494180185941C90241EA1D
:101980005051B1FBF3F603FB1611A2FB0675D7EB22
:10199000C020A94102D2761E80185941C90241EAED
:1019A0005051B1FBF3FE03FB1E11A2FB0E75D7EBEA
:1019B000C020A94103D2AEF1010E8018594189021D
:1019C00041EA9051760546EA8E2EB1FBF3F603FB11
:1019D0001611A2FB0675D7EB8020A94102D2761E14
:1019E00080185941C90241EA50514EEA060EB1FB36
:1019F000F3F603FB1611A2FB0675D7EBC020A94135
:101A000002D2761E80185941C90241EA5051B1FBF9
:101A1000F3F703FB1711A2FB0735D3EBC020A94155
:101A200067F100070CBF004247F0010766F3D527B6
:101A30004FEA1E31B80814F5806412DDBD0775F158
:101A4000004250EB0E5051EB045111F5801F5CBF6A
:101A500041EA0C01F0BD4CF07F6141F0E041002013
:101A6000F0BDBD076D0840EA0E5041F48011D4F17D
:101A70000104B4F120060ADAC4F120060200E040B5
:101A800001FA06F3E1401843B24015430EE0342C4E
:101A900013DCC6F1200445EA40056D0820FA06F281
:101AA000154321FA06F0A1400D43002175F10042D3
:101AB00050F1000051EB0C01F0BD00205FEA0C0179
:101AC000F0BDCFB992185B41B3FA83F704BFB2FA05
:101AD00082F6BF190B3FB7F120062FBF02FA06F3BB
:101AE000BB40C7F1200622FA06F638BF3343BA409E
:101AF0001CB1E419641E33E77F4231F00041B1FAB2
:101B000081F404BFB0FA80F6A4190B3CB4F12006AE
:101B10002FBF00FA06F1A140C4F1200620FA06F614
:101B200038BF3143A0403C1B1AE7AC421ABF05EA5C
:101B30001357AF4212E050EA41061CBF52EA430677
:101B4000BFE750EA4107304661461CBF41EA0551F4
:101B5000F0BD52EA430C08BFC143F0BD00204FF472
:101B6000001616EB410F98BF16EB430F08BF16EB9C
:101B7000410F24BFC14305E016EB430F0CBF614684
:101B80004CEA0551F0BD0000400D491840EA8120A3
:101B90000CD2490DA1F58061491C40F0004005DBE5
:101BA000D1F11F0154BFC840C017704700207047D3
:101BB000014648B1B0FA80F18840C91CC1F5846182
:101BC000090501EBD02140057047012000F0B8B8AD
:101BD00070470000841A71EB030604D26E40001BAC
:101BE000B141121973414FF4001C1CEB410F34BF7B
:101BF0007CEB430683E00C0DA4EB1356362E00F36A
:101C00007C80012E45EAC32341DC43EA525312BFD4
:101C1000D20292025B08240545EAC12141EA5051F3
:101C2000D2EBC020994125D407D1B0FA80F610FA42
:101C300006F162D00020203608E0B1FA81F6B1400A
:101C4000C6F1200220FA02F21143B0404FEAF474C8
:101C5000B4EB465434F001064FEA74040AD8D6F5C2
:101C60000016760D04F00044F04061FA06F2504090
:101C7000F1404840C00A40EA415021F0004128BFED
:101C80005FEA500550F1000044EBD12135E0DB0A5A
:101C900045EAC121C90AB6F120050EDD42EA024239
:101CA000120CC5F1200603FA06F6EB4042EA0605DF
:101CB0006D42984161F100010DE062FA06F5F240D3
:101CC000554063FA06FC82EA0C02F3405A406D422A
:101CD000904161EB030111F4801F05D1641E620580
:101CE00002D06D004041494121F48011430875F153
:101CF000004350F1000041EB045170BC70471CEBF5
:101D0000410F15D223F0004352EA43060BD04FEAAD
:101D10004C0CBCEB410F04D80C0D661E342EB7DD05
:101D2000EBE7801A994150EA410608BF0021E4E739
:101D300008BF1CEB430F28BF6FF00001DDE7000078
:101D400080B500F007F8024A11001820ABBEFBE78F
:101D50002600020080B500F054F802000023DB43A7
:101D60001068984204D011000220ABBE0020106021
:101D70005068984204D0111D0220ABBE0020506074
:101D800001BD0000F0B583B0040000F03AF8A100F6
:101D900047183D680026F643B54216D100F01AF800
:101DA0003D68B5420FD100BF09A00090002C01D1C1
:101DB000002000E0042001900320029069460120E9
:101DC000ABBE05003D6000F014F8280003B0F0BD84
:101DD0003A7474000C480121BFF35F8FD0E84F3F85
:101DE000C0E8421F002AF9D1BFF35F8F002BF3D167
:101DF00070470548BFF35F8F00210170BFF35F8F0D
:101E000070470248704700005007002088010020FA
:101E10002DE9FC47050017D0DFF84877DFF8546755
:101E2000BC68F86800F003082878C10604F00C04C8
:101E300053D524B10C2C08BFB8F1010F2FD138684D
:101E4000810703D5A869002800F064813968080774
:101E50004EBF396871680909286A01F0F0018142B2
:101E600006D200F044FB002809D100F044FA08E053
:101E700000F041FA2CB9286A00F039FB002840F044
:101E8000498100F0D4FABA6800F0C7FADFF8DC063E
:101E9000006800F087FB010000F02C8125E2A869B2
:101EA00090B1396841F00101396000F09DFB814635
:101EB0003868810700F11C8100F096FBA0EB090057
:101EC0000328F5D3032010E238684008400038604A
:101ED00000F08AFB81463868810740F10B8100F0F1
:101EE00083FBA0EB09000328F5D3EBE76868B0F5A6
:101EF000803F04D1386840F48030386011E0B0F59C
:101F0000A02F386806D140F480203860396841F449
:101F1000803105E020F480303860396821F4802178
:101F20003960686868B100F05FFB814638688103FA
:101F300000F1F28000F058FBA0EB09006528F5D312
:101F4000C0E700F051FB81463868810340F1E4802E
:101F500000F04AFBA0EB09006528F5D3B2E700F0DA
:101F600043FB00F0C4F9C0F0FD80ABE7E86880B146
:101F7000396841F48071396000F036FB804638687A
:101F8000410500F1DA8000F02FFB00F0B0F9F6D344
:101F900098E7386820F48070386000F025FB8046B0
:101FA0003868410540F1D08000F01EFB00F09FF939
:101FB000F6D387E740084000706000F015FB8046CC
:101FC0007068810740F1D28000F00EFB00F08FF9BD
:101FD000F6D377E70528306806D140F0040030607A
:101FE000316841F0010105E040084000306031688F
:101FF00021F004013160A86841F2893968B100F02C
:10200000F3FA82463068810700F1E68000F0ECFACE
:10201000A0EB0A004845F5D354E700F0E5FA824604
:102020003068810740F1D88000F0DEFAA0EB0A00AA
:102030004845F5D346E700F0D7FA00F058F9C0F06C
:10204000E0803FE740084000B06000F0CDFA8046F5
:10205000B068810740F1D98000F0C6FA00F047F976
:10206000F6D32FE700F0C0FA001B0328C0F00E8162
:1020700028E700F0B9FA001B0328C0F0318121E7FE
:10208000386881010CD4386840F080703860F96895
:1020900041F08071F96000F0A7FA044638688101C8
:1020A00000F1228100F0A0FA001B0328F6D309E713
:1020B0000C2C2FD0386820F080703860396811F00F
:1020C000205F03D1F86880088000F860F968DFF8C5
:1020D000A8040140F96000F087FA044638688101DD
:1020E00040F1028100F080FA001B0328F6D3E9E6F4
:1020F00000F001F92878C1070ED5082C05D00C2C6A
:1021000008BFB8F1030F7FF4F1AE3868810303D53F
:10211000686808B90120E8E02878810714D5042C04
:1021200005D00C2C08BFB8F1020F7FF41FAF386840
:10213000410502D5E8680028ECD07868296920F0CC
:10214000FE4040EA01607860287801070ED5686992
:10215000002870683FF42EAF40F00100706000F07E
:1021600043FA8046706881077FF5F9AE2878410709
:1021700039D5B86DC1004FF000080AD4B86D40F0F1
:102180008050B8654FF00108B86D00F080500090A5
:102190000098DFF8E893D9F80000C10513D4D9F806
:1021A000000040F48070C9F8000000F01DFA82467B
:1021B000D9F80000C10506D400F016FAA0EB0A0019
:1021C0000328F5D37EE6A86801287FF403AF3068C2
:1021D00040F0010030600EE7B8F1000F03D0B86D99
:1021E00020F08050B865287881060ED5686A0028EE
:1021F000B0683FF427AF40F00100B06000F0F4F9A0
:102200008046B06881077FF516AFA86A00286BD0BA
:1022100002287FF44DAFF868EA6A00F003019142AA
:1022200001BF00F070012A6B521EB1EB021F1CD1DE
:102230006A6B00F4FE41B1EB022F02BF00F078415F
:10224000AA6BB1EBC26F10D1EA6B520800F4C00167
:10225000521EB1EB425F08D1296C490800F0C06002
:10226000491EB0EB416F3FF40BAF0C2C3FF452AF63
:102270003868410101D43868C1003FF54BAF386878
:1022800020F08070386000F0AFF9044638688101B2
:102290003FF5E8AEFA68DFF8E812E86A0A40296B11
:1022A0000243491E686B42EA0112E96B490842EA9F
:1022B0000022286C491E400842EA4152401E42EA70
:1022C0004062A86B42EAC062FA60396841F08071EE
:1022D0003960F86840F08070F86000F085F90446D5
:1022E000386881017FF5C5AE0020BDE8F687A0EB18
:1022F000080003287047386840F0080038603968E3
:10230000286A21F0F001014339607968E86921F415
:102310007F4141EA0021796070472DE9F0410400D6
:10232000884678D0DFF85C62306800F007004045EE
:1023300009D23168C90848EAC1013160306800F04B
:102340000700404567D12078DFF81852C1074AD509
:102350006068032802D129688A0108E0022802D1B6
:1023600029688A0303E00028296802D18A0702D479
:1023700051E04A054FD5A968890840EA8100A86064
:1023800000F032F90746A868616800F00C00B0EB75
:10239000810F28D000F028F9C01B41F28931884212
:1023A000F1D303201DE02078410705D5AA68E06835
:1023B00022F4E0620243AA602178080706D5A968E2
:1023C000206921F4605141EAC001A96000F02FF8B2
:1023D000AA6800F022F8BDE8F0416448006800F007
:1023E000E1B8BDE8F0812078810705D5AA68A0682A
:1023F00022F0F0020243AA60316801F0070188452B
:10240000D1D23068C00848EAC0003060316801F0BD
:1024100007014145C7D00120E3E75B49C2F303123E
:10242000895C514A01F01F01C8401060704770B5C7
:102430004C4A574B9068D6680025002110F00C00DC
:1024400006F00306534C03D00C2812D1012E1AD1EA
:1024500015682E0704D4464D2E68C6F3032502E006
:102460001568C5F303154C4E56F8255048B9294652
:1024700024E0042808BF214620D008281ED1194690
:102480001CE00C281AD1D06800F00300022803D009
:10249000032808BF1D4600E02546D168D068D268F1
:1024A000C0F306204543C1F30210C2F34161401C52
:1024B000491CB5FBF0F04900B0FBF1F1084670BDD6
:1024C0002948006870472848304A00681368334933
:1024D000C3F3022206E024482C4A006813682F49FF
:1024E000C3F3C222895C01F01F01C84070477CB56C
:1024F0002B4E054630680024C10002D500F07AF862
:102500000EE0306840F080503060316801F080515A
:102510000091009800F06EF8316821F08051316030
:10252000B0F5007F04D1802D0CD9A12D09D304E092
:10253000802D88BF032405D801D1022402E0702D2C
:1025400000D101240F480168C90844EAC1010160B3
:10255000006800F00700A04201D0012076BD0020F5
:1025600076BD0000001002400C0000200800002092
:102570009410024090100240FFFFEEFE00700040F9
:102580008C809D0100200240F042000808100240AB
:1025900000127A000024F40090430008D44400089C
:1025A0005810024070B50E4E044630780025A0B198
:1025B0004FF47A710B4AB1FBF0F11068B0FBF1F007
:1025C00000F0A4F848B9102C07D2002221464FF0A1
:1025D000FF3000F07DF8B46000E00125284670BDB2
:1025E000000000200C00002001484068704700BF38
:1025F00000000020DFF89400006800F4C06070471D
:1026000010B5DFF88810B0F5007F086800F4C060EE
:1026100015D1B0F5007F1BD00868DFF87420DFF813
:10262000744020F4C06040F4007000F027F84A695C
:1026300053050FD5002818BF401EF8D10AE0B0F5A9
:10264000806F05D0086820F4C06040F480600860A6
:10265000002010BD48694105FAD5032010BDDFF800
:10266000380006E0DFF83000016841F400710160D5
:102670007047016841F48061016070470860322052
:1026800013684343B3FBF4F0401C704700700040F4
:102690000C00002040420F000470004009010200BD
:1026A00002D4254881547047244B02F00F021A448B
:1026B00002F8041C7047224B19684FF6FF02000213
:1026C000114000F4E06008431E4908431860704759
:1026D00038B51B4B1C68C4F30223C3F10704052C57
:1026E00028BF04241D1D072D34BF0023DB1E012538
:1026F00005FA04F4641E2140994005FA03F35B1EB9
:102700001A401143BDE83440C8E7000010B5401E30
:10271000B0F1807F01D3012010BD0B4C60600F2110
:102720004FF0FF30FFF7BAFF0021A16007202060C3
:10273000002010BD00F00AB800E400E018ED00E051
:102740000CED00E00000FA0510E000E0704700002A
:102750002DE9F84F064600243068DFF86073010564
:10276000A04621D5B06E70B1B0F5800F17D0B0F58E
:10277000000F03D0B0F5400F09D013E03A6842F4DF
:1027800080323A6004E0002100F08DF9044654B92B
:10279000F96FB06E21F440010143F96704E000F0E5
:1027A0007CF9F3E70124A0463068C10421D5F06E1E
:1027B000A8B1B0F1807F17D0B0F1007F03D0B0F1A5
:1027C000407F04D013E0396841F4803139607CB92E
:1027D000F96FF06E21F040710143F96709E00021C3
:1027E00000F061F90446F2E700F057F9FAE7012436
:1027F000A0463068DFF8C85281032ED5F86CC100BE
:102800004FF000090AD4F86C40F08050F8644FF0A3
:102810000109F86C00F0805000900098DFF8A4A245
:10282000DAF8000040F48070CAF80000FFF7DCFE20
:102830008346DAF80000C10500F10281FFF7D4FEFB
:10284000A0EB0B000328F4D30324A046B9F1000F3A
:1028500003D0F86C20F08050F8643078C10705D5BB
:10286000FA6FB06B920840EA8202FA673178880703
:1028700005D5F96FF06B21F00C010143F967317850
:10288000480705D5F96F306C21F030010143F96735
:102890003178080705D5F96F706C21F0C00101434C
:1028A000F9673178C80605D5F96FB06C21F440712D
:1028B0000143F9673178880605D5F96FF06C21F48A
:1028C00040610143F9673168880505D5F96F306EBD
:1028D00021F440210143F9673168480505D5F96FB6
:1028E000706E21F440110143F9673178480605D52F
:1028F000F96F306D21F440510143F96731780806D2
:1029000005D5F96F706D21F440410143F9673168D5
:10291000C80505D5F96FB06D21F440310143F96761
:102920003168C80205D5E968F06D890840EA81017F
:10293000E9603168880420D5F96F306F21F040617B
:102940000143F967306FB0F1006F0ED100F0A0F8CD
:1029500013E0FFF749FEA0EB0B0041F289318842FA
:10296000C0F08B804FF0030870E7B0F1806F04D1A6
:1029700000F098F8010018BF80463068010314D5B4
:10298000FA6F706F22F040620243FA67706FB0F125
:10299000006F02D100F07CF807E0B0F1806F04D145
:1029A00000F080F8010018BF80463068410314D55C
:1029B000FA6FB06F22F040620243FA67B06FB0F175
:1029C000006F02D100F064F807E0B0F1806F04D12D
:1029D00000F068F8010018BF80463068410418D53F
:1029E000FA6FF06F22F040520243FA67F06FB0F1D5
:1029F000805F03D1022100F056F807E0B0F1005FDC
:102A000007D1022106F1200000F0C2F8010018BF32
:102A100080463068010406D5FA6FD6F8800022F0AF
:102A200080420243FA673168C80306D5F96FD6F8C9
:102A3000840021F000410143F9674046BDE8F28F70
:102A4000002C7FF402AF286810F4407006F1840473
:102A50001CBF616888420BD02868296841F4803126
:102A6000296020F440702A6822F480322A602860AD
:102A7000C00706D5FFF7B8FD8346286881077FF5B4
:102A800068AF2A68606822F4407202432A60DDE67B
:102A9000386840F4801038607047002106F120004B
:102AA00000F076B80121301D00F00EB8DFF8F0011B
:102AB000016841F004010160704700000C10024001
:102AC00090100240007000402DE9F04100F0DBF86A
:102AD00009D0F16801F0030181422BD150B300F01D
:102AE000CBF80CD026E0012804D023D303281BD038
:102AF00016D31FE0326891071CD500F0B3F8306898
:102B000020F0806000F0C8F880463068010133D5BD
:102B1000FFF76AFDA0EB08000328F6D3032536E093
:102B200031684A05E9D405E031688A03E5D43168A3
:102B30004A03E2D401252AE0012C326909D13B691C
:102B4000584802405B0842EA01215B1E41EA4351BA
:102B500002E07B6900F07DF83161306840F0806010
:102B600000F09AF80446306801010CD4FFF73CFDF0
:102B7000001B0328F7D3D1E7B968002CDCD13269F8
:102B800000F05FF8E8E73169B8690143316155E069
:102B90002DE9F04100F077F809D0F16801F0030168
:102BA00081422BD150B300F067F80CD026E0012809
:102BB00004D023D303281BD016D31FE0326891071B
:102BC0001CD500F04FF8306820F0805000F064F819
:102BD00080463068810026D5FFF706FDA0EB08008F
:102BE0000328F6D3032529E031684A05E9D405E036
:102BF00031688A03E5D431684A03E2D401251DE037
:102C00003B6900F026F87161306840F0805000F0B8
:102C100043F80446306881000CD4FFF7E5FC001B44
:102C20000328F7D3DEE7B9687269002CE8D100F019
:102C300008F8E8E771697869014371612846BDE8E1
:102C4000F0811948FB68024042EA012141EAC36170
:102C50007047164802405B0842EA01215B1E41EAC8
:102C600043617047F268796822F073021043491E8D
:102C700040EA0110F0607047F0687968C0F3021014
:102C8000401C884270470746054E38680C46F1687C
:102C9000002511F0030F70473060FFF7A5BC00005E
:102CA00000100240FF809FFFFF80FF07FF80FFF9B9
:102CB00038B5040009D004F17005696809B900F05D
:102CC0001EF800F021F8012801D1012032BD606A10
:102CD00008B100F02AF800F00AF821F02A01FFE715
:102CE000816000F01BF8BDE8324000F0A0B9206818
:102CF000416821F49041416020688168704700205C
:102D00002870204600F022BA2421696020680268F9
:102D1000520852000260204600F00AB8206801689C
:102D200041F00101016020467047204600F01CB9C7
:102D3000F8B5044683482268834F1368A1680340AE
:102D400020690B4361690343E0690B43034313604C
:102D500000255168E06821F4405101435160A369A6
:102D600077498A421CBF206A03439668774826F455
:102D7000306633439360BA424FF40043744E33D10C
:102D8000366806F00306032E3BD8DFE806F0026F34
:102D900060810127E169B1F5004F4FF6F07640F010
:102DA000A7805FB1012F00F09B80022F0AD0042F73
:102DB00000F09980082F00F09980BBE0FFF783FBBB
:102DC000002810D061684A0802EB4002B2FBF1F023
:102DD00080B2A0F11001B142EFD20640C0F3420030
:102DE00006432068C660A6E05A4FBA4221D1366831
:102DF00016F00C065DD0042E38D0082E27D00C2EED
:102E000046D010278A42C5D137B1022F08D0042FEF
:102E100051D0082F52D08DE0FFF755FB0028E2D0AB
:102E2000626802EB4201884202D31303834247D215
:102E300080E0494FBA420CD1366816F0300638D0DF
:102E4000102E13D0202E02D0302E21D0D9E7022709
:102E5000D8E7424FBA420BD1366816F0C00628D0E8
:102E6000402E03D0802EF2D0C02EEEE70427C9E713
:102E70003B4FBA420ED1366816F4407619D0B6F5FB
:102E8000807FF3D0B6F5007FE1D0B6F5407FB8D1B2
:102E90000827B7E78A42B4D1366816F4406608D0EE
:102EA000B6F5806FE2D0B6F5006FD0D0B6F5406FC2
:102EB000CBE70027A6E7FFF7BAFAAFE71846AFE778
:102EC000010E560816EB002069410023FEF73AFA7E
:102ED000A0F54071234A91422CD22168C8602AE0B3
:102EE000FFF7F9FA6CE7FFF7A2FA69E7184669E716
:102EF00047B1012F16D0022F07D0042F15D0082F6D
:102F000016D017E0FFF7DFFAA8B1616800EB5100B7
:102F1000B0FBF1F080B2A0F11001B1420AD22268F8
:102F2000D06008E0FFF7D7FAEEE7FFF780FAEBE7AB
:102F30001846EAE701250020206660662846F2BDB3
:102F400000800040F369FFEF003801400024F400E6
:102F5000881002400044004000480040004C0040FF
:102F60000050004000FD0F0090F82410CA0706D55D
:102F700002685368816A23F400330B43536090F86E
:102F800024108A0706D502685368C16A23F4803387
:102F90000B43536090F824104A0706D50268536823
:102FA000016B23F480230B43536090F824100A072D
:102FB00006D502685368416B23F400430B4353600A
:102FC00090F82410CA0606D502689368816B23F432
:102FD00080530B43936090F824108A0606D502684C
:102FE0009368C16B23F400530B43936090F8241053
:102FF0004A0610D502685368016C23F480130B4312
:103000005360036CB3F5801F05D15368416C23F402
:10301000C0030B43536090F824100A0606D50168DC
:103020004A68806C22F4002202434A607047F8B577
:10303000044604F170050020E8606FF07E47FFF75A
:10304000D3FA0646206801680A0708D50097334678
:1030500000224FF40011204600F016F860B92068F5
:1030600001684A070AD50097334600224FF48001D1
:10307000204600F009F808B10320F2BD2020686066
:10308000A86000202870F2BD2DE9F041069C05469D
:103090000E4690461F462868C1693140B1420CBFB8
:1030A00001200020404528D114F1010FF3D0FFF793
:1030B0009BFAC01B844200D34CB92868016821F4F4
:1030C000D071016000F01CF80021017013E0286845
:1030D00001684A07DFD5C1690A05DCD54FF40061F4
:1030E00001622868026822F4D0720260002200F0B7
:1030F00007F8C1600270032000E00020BDE8F08105
:103100002868816849084900816005F17000202124
:10311000416081607047000080B525482549264AF6
:10312000016042600021C1604FF0805300220C21F9
:10313000836002614161826102624262FFF7B8FD11
:1031400018B1BDE8014000F0DFB801BD38B586B068
:10315000044601A8142100F0DFF82468154DAC42A4
:1031600023D11648016941F001010161016901F0B3
:10317000010100910099026842F04002026000687B
:1031800000F0400000900098FFF76CFA4FF4C07117
:10319000019102220021039102920821032205914C
:1031A000049201A9064800F0BBF807B030BD00004A
:1031B0009805002000800040243303004C1002409A
:1031C0000018004870B500F099F900F033F800F0ED
:1031D000A5F9FFF7A1FF00F019FAFFF771F90A212D
:1031E000B0FBF1F0FFF792FA4FF0604447A5414E73
:1031F00004E000BF20680028FBD02170316801295D
:10320000FCD1716800203060491C7160284600F0D4
:1032100071FA72680A21B2FBF1F10A2000FB112158
:10322000354A13683031D807E8D5344A1368D807CF
:10323000E0D4E3E718B5B9B0314C05A821464422E3
:10324000FEF774F86846142100F066F816A804F139
:1032500044018C22FEF76AF800F060FA2948016800
:1032600021F01801016014220592012160220791CA
:103270000B910D92002101220C91109211920221CA
:1032800028220F91129213911491159105A8FEF71F
:10329000BFFD032101910F204FF4806100900022B7
:1032A00003910292049204216846FFF736F8002247
:1032B000299242F2200101221691179218924FF0A2
:1032C000806118223291199202214FF480121A91D2
:1032D0001B911C911D9216A8FFF73AFA4FF400704B
:1032E000FFF78EF9FFF7E2FB3AB010BD014901206C
:1032F0000860704738070020800E00E0000E00E0F4
:10330000C03F0008901002407047000053575620FD
:10331000546573740D0A0000002200F007BA000023
:103320002DE9F84F4FF000086A4A0F2304460D4676
:1033300035E0694EB44214BF082607268E4046EA9F
:103340000E064CF82760C74364490E6807EA060C6E
:103350006E68F60348BF40EA0C0CC1F800C04E6826
:1033600007EA060C6E68B60348BF40EA0C0CC1F8C9
:1033700004C08E6807EA060C6E68F60248BF40EA91
:103380000C0CC1F808C0CE6807EA060C6F68BE02D4
:1033900048BF40EA0C0CC1F80CC008F101082968CC
:1033A00031FA08F000F08F80012000FA08FE1EEAD2
:1033B0000100F2D04FEA48070321B9406FEA010C3F
:1033C0006968012918BF022903D0112918BF1229E1
:1033D00010D1A168EE680CEA0101BE403143A16042
:1033E000616821EA0E066968C1F3001101FA08F16B
:1033F00031436160E168AE680CEA0101BE403143CF
:10340000E1604FEA88016E68022E18BF122E13D1B8
:103410004FEAD80604EB860E01F01C09DEF82060A6
:10342000D5F810B003FA09FA26EA0A060BFA09F9E8
:1034300049EA0606CEF82060266895F804E00EF00A
:10344000030E0CEA06060EFA07F7374327606F688B
:10345000FE00A2D51768DFF888C047F001071760A3
:1034600001F00C01166806F00106009603FA01FE51
:10347000009F4FEA98075CF8276026EA0E0EB4F129
:10348000904F08BF00261DD0164EB44208BF01263B
:1034900018D0154EB44208BF022613D0134EB442C2
:1034A00008BF03260ED0124EB44208BF042609D02E
:1034B000104EB44208BF052604D00F4EB4427FF42C
:1034C00038AF06263AE7BDE8F18F0AB1816170474F
:1034D0008162704760100240001C004800040140F7
:1034E000080001400004004800080048000C0048A3
:1034F000001000480014004800180048032010B5D0
:10350000FFF7D9F80020FFF74DF80024002814BF7A
:10351000012400F025F9204610BD000038B586B022
:1035200068461421FFF7F8FE2F4C256845F0040586
:10353000256020682D4D00F0040005900598216855
:1035400041F080012160226802F080020592059816
:10355000216841F002012160226802F00202059216
:103560000598216841F040012160226802F0400284
:1035700005920598FFF776F8216841F00101216076
:10358000002220681A4C00F0010005904FF48141A0
:1035900005982046FFF799FF002240212846FFF7B3
:1035A00094FF4FF4005013490090019100220292C1
:1035B00069461148FFF7B4FE4FF4814100F01EF850
:1035C0002046FFF7ADFE20200021009001910291DE
:1035D00028466946FFF7A4FE402100F00FF8284670
:1035E000FFF79EFE07B030BD4C10024000180048A7
:1035F000000400480000111000080048009101225A
:1036000000210291039101926946704780B53448C8
:103610004FF0A04106220160426000210122C261F8
:103620000162022300220121C36083614262816240
:103630000263C16200F0ACF818B1BDE80140FFF7C9
:1036400063BE01BD10B586B0044601A81421FFF782
:1036500063FE2468B4F1A04F3FD1224C206840F0B3
:10366000010020600222216801F0010100914FF465
:10367000E8510098019102920021039103220A214E
:103680000591049201A94FF09040FFF749FE4FF4D5
:10369000007000210190029103914FF0904001A928
:1036A000FFF73EFE206840F480502060216801F45E
:1036B000805100910098E168C8000CD4E16841F0A5
:1036C0008051E16000F010F8FEF7C9FFE06820F0DB
:1036D0008050E06001E0FEF7C2FF06B010BD0000C0
:1036E000900100204C100240E06800F080500090F3
:1036F000009870470EB4C0B5024603A8002101909F
:10370000009101AB0121044878440C30FCF74EFDD8
:1037100006BC5DF810FB00BF7F0D00000248016889
:1037200041F48071016070470070004000B500BF37
:10373000130096469446103928BFA0E80C50FAD8DA
:103740005FEA417C28BF0CC048BF40F8042BC90782
:1037500028BF20F8022B48BF00F8012B00BD000055
:103760000A4881B0816841F001018160816801F0FF
:10377000010100910099026842F0805202600068E5
:1037800000F080500090009801B07047581002403F
:1037900070B504008AB04BD0266804F56F75687860
:1037A00020B9002129702046FFF74CFF03206870E4
:1037B000F16BC8055CBF00212161206800F087F82B
:1037C00083B000F04EF80EBC206800F04FF80028DF
:1037D0002CD12068002100F080F800211C20002658
:1037E0000AE010FB01F222443C32012353701170B5
:1037F000D180002300F02EF862689142F1D30021BD
:1038000009E010FB01F2224402F5FE720023117060
:10381000537000F01FF862689142F2D383B000F059
:1038200020F80EBC206800F06FF818B10220687014
:1038300001200DE084F8380001216970606A0128D8
:1038400004BF204600F052F9206800F026F900205D
:103850000AB070BD491CD6709360D6605361C9B27E
:103860007047211D68463422FDF760BD0EB418B5BF
:1038700004460898012817D1A06B20F48030A0637B
:10388000E168DFF85C020140E160E16821F4401189
:10389000E1600F98012803D1E06840F48010E060F7
:1038A000204600F008F90FE0E06840F04000E060DA
:1038B000204600F000F90C990029A16B0CBF41F4DF
:1038C000803121F48031A16312BC5DF810FB816866
:1038D0004908490081600020704780B5C26822F025
:1038E000C0420129C26008D1C16841F00051C160E5
:1038F000322000F00FF9002002BD19B9C16841F073
:103900008041F4E7012002BD0EB42DE9F0430546E5
:10391000044600260021002004EB8102491C0F29E7
:10392000C2F80401F8D3DDF84490B9F1000F05F5B1
:10393000006710D1786840F002007860A06B20F436
:103940000010A063216841F040012160206840F030
:103950008000206003E0A06B40F40010A06305F538
:10396000606303211E6038683860204600F08DF8DF
:103970001021204600F06DF800B10126204600F02D
:1039800077F800B101260020386178612A46F86195
:103990004FF67F334FF0904C4FF0006E002503E060
:1039A0000D600D618B60401C079988422AD202EBA2
:1039B000401101F51061D1F80080B8F1000FEFD58A
:1039C000002806BF02F51068C8F800E0C1F800C082
:1039D000E7E70D600D618B60401C0799884213D2A8
:1039E00002EB401101F53061D1F80080B8F1000F11
:1039F000EFD5002806BF02F53068C8F800E0C1F82E
:103A000000C0E7E70020E8E7386920F480703861FB
:103A1000A5616FF080406061A169DFF8C80041F0E6
:103A20001001A161A1690143A1610D9818B1A069BC
:103A300040F00800A061B9F1010F05D1A06940F084
:103A4000804040F00400A0613046BDE8F0035DF81E
:103A500010FB890141F020010161DFF88C10491E43
:103A600004D002699306FAD40020704703207047FF
:103A700010210161DFF87010491E04D00269D306DD
:103A8000FAD4002070470320704700F500600268F8
:103A90001143FFE701600020704700F5606100F509
:103AA00000600A68920892000A60416841F00201D1
:103AB000416000207047DFF830201146491E0DD0CC
:103AC0000369002BFAD5016941F001010161521E21
:103AD00004D00169CB07FAD4002070470320704757
:103AE000BFFFBDFF00383C80410D0300016800F5B9
:103AF0007D700122002382600370886940F00060BD
:103B00008861486D40F0805040F003004865002017
:103B10007047000038B50446FEF766FD14F1010F4A
:103B2000054602D0044801786418FEF75DFD401B8D
:103B3000A042FAD331BD00BF0000002010B50446FA
:103B4000AFF30080204600F005F80446AFF3008094
:103B5000204610BD70B500F10F06F608F600B04221
:103B600040D2082E04D2082602E0083000F047F8C0
:103B7000DFF804512C68210005D1002007E002681D
:103B8000B24221D2011D08680028F8D12068291D01
:103B90000A68824222D01368B34238BF111DF7D39E
:103BA00012E093190B60801B54685C600B6818600E
:103BB0001660096800291DBF48680028081D0020FC
:103BC000286002F1080070BD61B10A681068A0F1B8
:103BD0000803B342E5D250680860EAE700F04EF807
:103BE0000028C2D1002070BD10B5040006D0AFF38C
:103BF0000080204600F003F8AFF3008010BD0028DD
:103C000000D1704770B4A0F108021368072B2BD9BC
:103C100013F0070F28D1184C616809B18A4202D20B
:103C20005160626013E0486800B3904238BF0146BB
:103C3000F9D31BE0964203D11B180B600A4606E03D
:103C4000486810B1134498420ED350604A605068DF
:103C500050B11368D518854206D100262660016848
:103C6000CB1813604068506070BC704708680E182D
:103C7000B242DFD270BC7047400700200749086895
:103C800008B1002070470648C008C0000860054918
:103C9000C908C900091A0160704700BF4C0700201D
:103CA0005F0B0020580D00202DE9F04107468846A3
:103CB000387810F0030F16461D4633D0384600F012
:103CC00099F878BBB8F1000F1CBFD8E9000186193C
:103CD000012D2ED13888C10415D5396A07F1440267
:103CE000384600F0A3F83A6B044602B93A69F9681D
:103CF000384600F09BF8361B341A7A69F968384662
:103D000000F094F8261A1EB94DB916F1010F09D02A
:103D100097F903002A46314600F08EF8064616F160
:103D2000010F09D12320AFF300804FF0FF30BDE831
:103D3000F081022DE8D1EBE7388810F4405F0ED017
:103D40007868F86038617861B86107F14401786893
:103D5000F861396207F13000002178623963B8F107
:103D6000000F05D0D8E9020107F13402C2E90001D1
:103D70003B884CF6FF6003403B800020BDE8F081AB
:103D800070B50546AFF300802888810415D56E68AC
:103D90000024EA6895F903003146914212D2521A82
:103DA00000F06FF810F1010F1CBF00283618F0D199
:103DB0000FE04DF6FF70014029802846AFF30080E8
:103DC000002070BD0022002100F05BF810F1010F0F
:103DD00000D101246868E860A861E861002C2988A6
:103DE000E7D041F4007129802846AFF300804FF0FE
:103DF000FF3070BDF8B5A0B9AFF3008000250A4EC2
:103E000008244FF0FF37306820B1FFF7B9FF0028D2
:103E100048BF3D46361D641EF5D1AFF300802846ED
:103E2000F2BDBDE8F240ABE768010020914234BF2B
:103E3000511A0021084670473EB504000D00012AC2
:103E400002D100F06BF807E0022A07D100940020AD
:103E5000019069460C20ABBE2D1801E0002A0CD160
:103E60000094019569460A20ABBE002805D10022C6
:103E70002100280000F02FF801E00020C04303B02B
:103E800030BD80B5002802D400F06AF802BD0020E1
:103E900002BD000010B4314A002113461C68844260
:103EA0001EBF491C9C6884421EBF491C1C69844279
:103EB00009D09C69491C844205D0491C2033102933
:103EC000ECD310BC7047002342F8313002EBC10143
:103ED0004B6010BC704770B4204C002325462E6800
:103EE0008E421EBF5B1CAE688E421EBF5B1C2E69DD
:103EF0008E4209D0AE695B1C8E4205D05B1C20351A
:103F0000102BECD370BC7047054604EBC303012AA9
:103F100004BF59684D195D6070BC704710B40F4AFA
:103F2000002113461C6884421EBF491C9C688442C1
:103F30001EBF491C1C6984420AD09C69491C8442EA
:103F400006D0491C20331029ECD310BC0020704748
:103F500002EBC100406810BC70470000180600204A
:103F600080B5002901D1002002BD012801D002281E
:103F700002D100F004F802BD00F011F802BD30B526
:103F800083B00C0015000120FDF7FCFE00900194A9
:103F9000029569460520ABBE281A03B030BD18B59E
:103FA00083B0030014000093019102946946052038
:103FB000ABBE01221900201AFFF78DFF04B010BD1F
:103FC00000000000000000000000000000000000F1
:103FD00000000000000000000000000000000000E1
:103FE00000000000000000000000000000000000D1
:103FF00000000000000000000000000000000000C1
:1040000000000000000000000000000000000000B0
:1040100000000000000000000000000000000000A0
:104020000000000000000000000000000000000090
:104030000000000000000000000000000000000080
:104040000000000000000000000000000000000070
:104050000000000000000000000000000000000060
:104060000000000000000000000000000000000050
:104070000000000000000000000000000000000040
:104080000000000000000000000000000000000030
:1040900010B50446E068A169884251D3218849F2ED
:1040A00002030B40022B08D008044CBF4FF40070F1
:1040B0004FF48440014321803BE001F4C042B2F55B
:1040C000C04F06D1A168884203D32046FFF792FE75
:1040D00078BB208810F4406F02BF606804F144018F
:1040E000884217D14FF40070FFF728FD606030B9A7
:1040F00004F144006060E060401CA0600AE0218898
:1041000041F040012180E060606100F5007260686C
:10411000A260E0616068A1682061A1612078410728
:104120000AD502220021204600F00CF810F1010F00
:1041300002D14FF0FF3010BD208840F4C0402080F5
:10414000002010BD70B504460D461646AFF3008042
:1041500033462A4600212046FFF7A6FD05462046A5
:10416000AFF30080284670BD18B401780A0627D541
:104170001F4A13680021834203D1002442F82140E2
:104180001BE05368012183421EBF022193688342D2
:10419000F3D0D368032183421EBF042113698342F5
:1041A000EBD05369052183421EBF062193698342E8
:1041B0001EBF0721D3698342DFD012BC00F01AB8BA
:1041C000002101804FF0FF3200F14401C270C16054
:1041D0004161C16100F1440300F1440200F130018A
:1041E0004360026182610262416211BC704700005B
:1041F00068010020FFF7F8BC38B504000ED0207825
:1042000010F0030F03D094F90300002809D5AFF391
:1042100000802046FFF7A8FFAFF300804FF0FF308B
:1042200032BD2046FFF7E6FD0546AFF3008020785B
:10423000410644BF6068FFF7DDFF0020606094F92D
:104240000300022804D900F016F808B14FF0FF353A
:10425000E06B48B100F01BF808B14FF0FF35E06BA0
:10426000FFF7C8FF0020E0632046FFF77DFFAFF3B4
:104270000080284632BD1CB502000092694602202B
:10428000ABBE04001000FFF705FE200016BDE0B530
:104290000090FCF7EFFF019069460E20ABBE03B023
:1042A00000BD00000E48016841F470010160002269
:1042B0000C49086840F0010008608A604FF48052A1
:1042C0000B68094803400B60CA6000200B68074A6E
:1042D00023F480230B6088614FF000611160704708
:1042E00088ED00E000100240FFFFF6EA08ED00E074
:1042F0000000000000000000010203040607080996
:1043000038B50C46C5B22046AFF30080E068A1691D
:10431000884204D32046FFF7BBFE00280FD4E06894
:10432000401CE06000F8015D2088010503D44005D1
:104330000BD50A2D09D12046FFF75CFD28B1204698
:10434000AFF300804FF0FF3032BD2046AFF3008066
:10435000284632BD38B50D4D0824286800281CBFFA
:10436000017811F0030F05D090F90310002958BF10
:10437000FFF742FF2D1D641EEFD1BDE8384000223B
:1043800000214FF0FF30FFF77CBD00BF6801002027
:10439000A0860100400D0300801A060000350C00C5
:1043A00040420F0080841E0000093D0000127A0088
:1043B0000024F40000366E010048E801006CDC02C5
:1043C00010B5074979441831064C7C44163404E092
:1043D0000A68081D114488470146A142F8D110BD62
:1043E000600000007C0000007047FEE7FEE7FEE78B
:1043F000FEE770477047704780B500F007F8FEF79A
:1044000099F9BDE80140FEF771BF0000024841681C
:1044100002788A1842607047000000204EF68851EA
:10442000CEF20001086840F470000860BFF34F8FBF
:10443000BFF36F8F4FF00070E1EE100A704700007D
:10444000BBCDFFFFC405000090010020000000006C
:10445000A3CCFFFFF80100001601000000000020BF
:1044600000F00DF8002801D0FFF7AAFFAFF300809D
:104470000020AFF30080FEF7A5FE00F002F8012057
:10448000704700F001B800000746FFF763FF3846A9
:10449000FDF756FCFBE738B504460D46284600F00C
:1044A00005F8A84218BF0024204632BD0149FFF795
:1044B00027BF00BFD80000200148804701480047BF
:1044C000A5420008C9440008AFF30080FFF7A6FF2B
:1044D000FFF7C6FF000000000102030400002E00E9
:1044E0004300FFF7FEBFFFF7FEBFFFF7FEBFFFF77A
:1044F000FEBFFFF7FEBFFFF7FEBFFFF7FEBFFFF7F0
:10450000FEBFFFF7FEBFFFF7FEBFFFF7FEBFFFF7DF
:10451000FEBFFFF7FEBFFFF7FEBFFFF7FEBFFFF7CF
:10452000FEBFFFF7FEBFFFF7FEBFFFF7FEBFFFF7BF
:10453000FEBFFFF7FEBFFFF7FEBFFFF7FEBFFFF7AF
:10454000FEBFFFF7FEBFFFF7FEBFFFF7FEBFFFF79F
:10455000FEBFFFF7FEBFFFF7FEBFFFF7FEBFFFF78F
:10456000FEBFFFF7FEBFFFF7FEBFFFF7FEBFFFF77F
:10457000FEBFFFF7FEBFFFF7FEBFFFF7FEBFFFF76F
:10458000FEBFFFF7FEBFFFF7FEBFFFF7FEBFFFF75F
:10459000FEBFFFF7FEBFFFF7FEBFFFF7FEBFFFF74F
:1045A000FEBFFFF7FEBFFFF7FEBFFFF7FEBFFFF73F
:1045B000FEBFFFF7FEBFFFF7FEBFFFF7FEBFFFF72F
:1045C000FEBFFFF7FEBFFFF7FEBFFFF7FEBFFFF71F
:1045D000FEBFFFF7FEBFFFF7FEBFFFF7FEBFFFF70F
:1045E000FEBFFFF7FEBFFFF7FEBFFFF7FEBFFFF7FF
:1045F000FEBFFFF7FEBFFFF7FEBFFFF7FEBFFFF7EF
:10460000FEBFFFF7FEBFFFF7FEBFFFF7FEBFFFF7DE
:10461000FEBFFFF7FEBFFFF7FEBFFFF7FEBFFFF7CE
:10462000FEBFFFF7FEBFFFF7FEBFFFF7FEBFFFF7BE
:10463000FEBFFFF7FEBFFFF7FEBFFFF7FEBFFFF7AE
:10464000FEBFFFF7FEBFFFF7FEBF00004301000102
:10465000221008F00507093D00DC4400080452FF61
:1046600001F200DE1410010000E00C214C1148F3AF
:10467000162000012002BD1200082C43AB123C2181
:1046800001100301040000D44412D50452D40421C3
:104690001BA108F212C064200A02040101E806000E
:1046A000203807002008210421346108F004121C7E
:1046B0000100200801485002080202984052980464
:1046C00021346108126444F21250481290B412D896
:0746D00004F206202C655CDA
:04000005080044C9E2
:00000001FF
